{
  "contractName": "BPool",
  "abi": [
    {
      "inputs": [],
      "payable": false,
      "stateMutability": "nonpayable",
      "type": "constructor"
    },
    {
      "anonymous": false,
      "inputs": [
        {
          "indexed": true,
          "internalType": "address",
          "name": "src",
          "type": "address"
        },
        {
          "indexed": true,
          "internalType": "address",
          "name": "dst",
          "type": "address"
        },
        {
          "indexed": false,
          "internalType": "uint256",
          "name": "amt",
          "type": "uint256"
        }
      ],
      "name": "Approval",
      "type": "event"
    },
    {
      "anonymous": true,
      "inputs": [
        {
          "indexed": true,
          "internalType": "bytes4",
          "name": "sig",
          "type": "bytes4"
        },
        {
          "indexed": true,
          "internalType": "address",
          "name": "caller",
          "type": "address"
        },
        {
          "indexed": false,
          "internalType": "bytes",
          "name": "data",
          "type": "bytes"
        }
      ],
      "name": "LOG_CALL",
      "type": "event"
    },
    {
      "anonymous": false,
      "inputs": [
        {
          "indexed": true,
          "internalType": "address",
          "name": "caller",
          "type": "address"
        },
        {
          "indexed": true,
          "internalType": "address",
          "name": "tokenOut",
          "type": "address"
        },
        {
          "indexed": false,
          "internalType": "uint256",
          "name": "tokenAmountOut",
          "type": "uint256"
        }
      ],
      "name": "LOG_EXIT",
      "type": "event"
    },
    {
      "anonymous": false,
      "inputs": [
        {
          "indexed": true,
          "internalType": "address",
          "name": "caller",
          "type": "address"
        },
        {
          "indexed": true,
          "internalType": "address",
          "name": "tokenIn",
          "type": "address"
        },
        {
          "indexed": false,
          "internalType": "uint256",
          "name": "tokenAmountIn",
          "type": "uint256"
        }
      ],
      "name": "LOG_JOIN",
      "type": "event"
    },
    {
      "anonymous": false,
      "inputs": [
        {
          "indexed": true,
          "internalType": "address",
          "name": "caller",
          "type": "address"
        },
        {
          "indexed": true,
          "internalType": "address",
          "name": "tokenIn",
          "type": "address"
        },
        {
          "indexed": true,
          "internalType": "address",
          "name": "tokenOut",
          "type": "address"
        },
        {
          "indexed": false,
          "internalType": "uint256",
          "name": "tokenAmountIn",
          "type": "uint256"
        },
        {
          "indexed": false,
          "internalType": "uint256",
          "name": "tokenAmountOut",
          "type": "uint256"
        }
      ],
      "name": "LOG_SWAP",
      "type": "event"
    },
    {
      "anonymous": false,
      "inputs": [
        {
          "indexed": true,
          "internalType": "address",
          "name": "src",
          "type": "address"
        },
        {
          "indexed": true,
          "internalType": "address",
          "name": "dst",
          "type": "address"
        },
        {
          "indexed": false,
          "internalType": "uint256",
          "name": "amt",
          "type": "uint256"
        }
      ],
      "name": "Transfer",
      "type": "event"
    },
    {
      "constant": true,
      "inputs": [],
      "name": "BONE",
      "outputs": [
        {
          "internalType": "uint256",
          "name": "",
          "type": "uint256"
        }
      ],
      "payable": false,
      "stateMutability": "view",
      "type": "function"
    },
    {
      "constant": true,
      "inputs": [],
      "name": "BPOW_PRECISION",
      "outputs": [
        {
          "internalType": "uint256",
          "name": "",
          "type": "uint256"
        }
      ],
      "payable": false,
      "stateMutability": "view",
      "type": "function"
    },
    {
      "constant": true,
      "inputs": [],
      "name": "EXIT_FEE",
      "outputs": [
        {
          "internalType": "uint256",
          "name": "",
          "type": "uint256"
        }
      ],
      "payable": false,
      "stateMutability": "view",
      "type": "function"
    },
    {
      "constant": true,
      "inputs": [],
      "name": "INIT_POOL_SUPPLY",
      "outputs": [
        {
          "internalType": "uint256",
          "name": "",
          "type": "uint256"
        }
      ],
      "payable": false,
      "stateMutability": "view",
      "type": "function"
    },
    {
      "constant": true,
      "inputs": [],
      "name": "MAX_BOUND_TOKENS",
      "outputs": [
        {
          "internalType": "uint256",
          "name": "",
          "type": "uint256"
        }
      ],
      "payable": false,
      "stateMutability": "view",
      "type": "function"
    },
    {
      "constant": true,
      "inputs": [],
      "name": "MAX_BPOW_BASE",
      "outputs": [
        {
          "internalType": "uint256",
          "name": "",
          "type": "uint256"
        }
      ],
      "payable": false,
      "stateMutability": "view",
      "type": "function"
    },
    {
      "constant": true,
      "inputs": [],
      "name": "MAX_FEE",
      "outputs": [
        {
          "internalType": "uint256",
          "name": "",
          "type": "uint256"
        }
      ],
      "payable": false,
      "stateMutability": "view",
      "type": "function"
    },
    {
      "constant": true,
      "inputs": [],
      "name": "MAX_IN_RATIO",
      "outputs": [
        {
          "internalType": "uint256",
          "name": "",
          "type": "uint256"
        }
      ],
      "payable": false,
      "stateMutability": "view",
      "type": "function"
    },
    {
      "constant": true,
      "inputs": [],
      "name": "MAX_OUT_RATIO",
      "outputs": [
        {
          "internalType": "uint256",
          "name": "",
          "type": "uint256"
        }
      ],
      "payable": false,
      "stateMutability": "view",
      "type": "function"
    },
    {
      "constant": true,
      "inputs": [],
      "name": "MAX_TOTAL_WEIGHT",
      "outputs": [
        {
          "internalType": "uint256",
          "name": "",
          "type": "uint256"
        }
      ],
      "payable": false,
      "stateMutability": "view",
      "type": "function"
    },
    {
      "constant": true,
      "inputs": [],
      "name": "MAX_WEIGHT",
      "outputs": [
        {
          "internalType": "uint256",
          "name": "",
          "type": "uint256"
        }
      ],
      "payable": false,
      "stateMutability": "view",
      "type": "function"
    },
    {
      "constant": true,
      "inputs": [],
      "name": "MIN_BALANCE",
      "outputs": [
        {
          "internalType": "uint256",
          "name": "",
          "type": "uint256"
        }
      ],
      "payable": false,
      "stateMutability": "view",
      "type": "function"
    },
    {
      "constant": true,
      "inputs": [],
      "name": "MIN_BOUND_TOKENS",
      "outputs": [
        {
          "internalType": "uint256",
          "name": "",
          "type": "uint256"
        }
      ],
      "payable": false,
      "stateMutability": "view",
      "type": "function"
    },
    {
      "constant": true,
      "inputs": [],
      "name": "MIN_BPOW_BASE",
      "outputs": [
        {
          "internalType": "uint256",
          "name": "",
          "type": "uint256"
        }
      ],
      "payable": false,
      "stateMutability": "view",
      "type": "function"
    },
    {
      "constant": true,
      "inputs": [],
      "name": "MIN_FEE",
      "outputs": [
        {
          "internalType": "uint256",
          "name": "",
          "type": "uint256"
        }
      ],
      "payable": false,
      "stateMutability": "view",
      "type": "function"
    },
    {
      "constant": true,
      "inputs": [],
      "name": "MIN_WEIGHT",
      "outputs": [
        {
          "internalType": "uint256",
          "name": "",
          "type": "uint256"
        }
      ],
      "payable": false,
      "stateMutability": "view",
      "type": "function"
    },
    {
      "constant": true,
      "inputs": [
        {
          "internalType": "address",
          "name": "src",
          "type": "address"
        },
        {
          "internalType": "address",
          "name": "dst",
          "type": "address"
        }
      ],
      "name": "allowance",
      "outputs": [
        {
          "internalType": "uint256",
          "name": "",
          "type": "uint256"
        }
      ],
      "payable": false,
      "stateMutability": "view",
      "type": "function"
    },
    {
      "constant": false,
      "inputs": [
        {
          "internalType": "address",
          "name": "dst",
          "type": "address"
        },
        {
          "internalType": "uint256",
          "name": "amt",
          "type": "uint256"
        }
      ],
      "name": "approve",
      "outputs": [
        {
          "internalType": "bool",
          "name": "",
          "type": "bool"
        }
      ],
      "payable": false,
      "stateMutability": "nonpayable",
      "type": "function"
    },
    {
      "constant": true,
      "inputs": [
        {
          "internalType": "address",
          "name": "whom",
          "type": "address"
        }
      ],
      "name": "balanceOf",
      "outputs": [
        {
          "internalType": "uint256",
          "name": "",
          "type": "uint256"
        }
      ],
      "payable": false,
      "stateMutability": "view",
      "type": "function"
    },
    {
      "constant": true,
      "inputs": [
        {
          "internalType": "uint256",
          "name": "tokenBalanceIn",
          "type": "uint256"
        },
        {
          "internalType": "uint256",
          "name": "tokenWeightIn",
          "type": "uint256"
        },
        {
          "internalType": "uint256",
          "name": "tokenBalanceOut",
          "type": "uint256"
        },
        {
          "internalType": "uint256",
          "name": "tokenWeightOut",
          "type": "uint256"
        },
        {
          "internalType": "uint256",
          "name": "tokenAmountOut",
          "type": "uint256"
        },
        {
          "internalType": "uint256",
          "name": "swapFee",
          "type": "uint256"
        }
      ],
      "name": "calcInGivenOut",
      "outputs": [
        {
          "internalType": "uint256",
          "name": "tokenAmountIn",
          "type": "uint256"
        }
      ],
      "payable": false,
      "stateMutability": "pure",
      "type": "function"
    },
    {
      "constant": true,
      "inputs": [
        {
          "internalType": "uint256",
          "name": "tokenBalanceIn",
          "type": "uint256"
        },
        {
          "internalType": "uint256",
          "name": "tokenWeightIn",
          "type": "uint256"
        },
        {
          "internalType": "uint256",
          "name": "tokenBalanceOut",
          "type": "uint256"
        },
        {
          "internalType": "uint256",
          "name": "tokenWeightOut",
          "type": "uint256"
        },
        {
          "internalType": "uint256",
          "name": "tokenAmountIn",
          "type": "uint256"
        },
        {
          "internalType": "uint256",
          "name": "swapFee",
          "type": "uint256"
        }
      ],
      "name": "calcOutGivenIn",
      "outputs": [
        {
          "internalType": "uint256",
          "name": "tokenAmountOut",
          "type": "uint256"
        }
      ],
      "payable": false,
      "stateMutability": "pure",
      "type": "function"
    },
    {
      "constant": true,
      "inputs": [
        {
          "internalType": "uint256",
          "name": "tokenBalanceOut",
          "type": "uint256"
        },
        {
          "internalType": "uint256",
          "name": "tokenWeightOut",
          "type": "uint256"
        },
        {
          "internalType": "uint256",
          "name": "poolSupply",
          "type": "uint256"
        },
        {
          "internalType": "uint256",
          "name": "totalWeight",
          "type": "uint256"
        },
        {
          "internalType": "uint256",
          "name": "tokenAmountOut",
          "type": "uint256"
        },
        {
          "internalType": "uint256",
          "name": "swapFee",
          "type": "uint256"
        }
      ],
      "name": "calcPoolInGivenSingleOut",
      "outputs": [
        {
          "internalType": "uint256",
          "name": "poolAmountIn",
          "type": "uint256"
        }
      ],
      "payable": false,
      "stateMutability": "pure",
      "type": "function"
    },
    {
      "constant": true,
      "inputs": [
        {
          "internalType": "uint256",
          "name": "tokenBalanceIn",
          "type": "uint256"
        },
        {
          "internalType": "uint256",
          "name": "tokenWeightIn",
          "type": "uint256"
        },
        {
          "internalType": "uint256",
          "name": "poolSupply",
          "type": "uint256"
        },
        {
          "internalType": "uint256",
          "name": "totalWeight",
          "type": "uint256"
        },
        {
          "internalType": "uint256",
          "name": "tokenAmountIn",
          "type": "uint256"
        },
        {
          "internalType": "uint256",
          "name": "swapFee",
          "type": "uint256"
        }
      ],
      "name": "calcPoolOutGivenSingleIn",
      "outputs": [
        {
          "internalType": "uint256",
          "name": "poolAmountOut",
          "type": "uint256"
        }
      ],
      "payable": false,
      "stateMutability": "pure",
      "type": "function"
    },
    {
      "constant": true,
      "inputs": [
        {
          "internalType": "uint256",
          "name": "tokenBalanceIn",
          "type": "uint256"
        },
        {
          "internalType": "uint256",
          "name": "tokenWeightIn",
          "type": "uint256"
        },
        {
          "internalType": "uint256",
          "name": "poolSupply",
          "type": "uint256"
        },
        {
          "internalType": "uint256",
          "name": "totalWeight",
          "type": "uint256"
        },
        {
          "internalType": "uint256",
          "name": "poolAmountOut",
          "type": "uint256"
        },
        {
          "internalType": "uint256",
          "name": "swapFee",
          "type": "uint256"
        }
      ],
      "name": "calcSingleInGivenPoolOut",
      "outputs": [
        {
          "internalType": "uint256",
          "name": "tokenAmountIn",
          "type": "uint256"
        }
      ],
      "payable": false,
      "stateMutability": "pure",
      "type": "function"
    },
    {
      "constant": true,
      "inputs": [
        {
          "internalType": "uint256",
          "name": "tokenBalanceOut",
          "type": "uint256"
        },
        {
          "internalType": "uint256",
          "name": "tokenWeightOut",
          "type": "uint256"
        },
        {
          "internalType": "uint256",
          "name": "poolSupply",
          "type": "uint256"
        },
        {
          "internalType": "uint256",
          "name": "totalWeight",
          "type": "uint256"
        },
        {
          "internalType": "uint256",
          "name": "poolAmountIn",
          "type": "uint256"
        },
        {
          "internalType": "uint256",
          "name": "swapFee",
          "type": "uint256"
        }
      ],
      "name": "calcSingleOutGivenPoolIn",
      "outputs": [
        {
          "internalType": "uint256",
          "name": "tokenAmountOut",
          "type": "uint256"
        }
      ],
      "payable": false,
      "stateMutability": "pure",
      "type": "function"
    },
    {
      "constant": true,
      "inputs": [
        {
          "internalType": "uint256",
          "name": "tokenBalanceIn",
          "type": "uint256"
        },
        {
          "internalType": "uint256",
          "name": "tokenWeightIn",
          "type": "uint256"
        },
        {
          "internalType": "uint256",
          "name": "tokenBalanceOut",
          "type": "uint256"
        },
        {
          "internalType": "uint256",
          "name": "tokenWeightOut",
          "type": "uint256"
        },
        {
          "internalType": "uint256",
          "name": "swapFee",
          "type": "uint256"
        }
      ],
      "name": "calcSpotPrice",
      "outputs": [
        {
          "internalType": "uint256",
          "name": "spotPrice",
          "type": "uint256"
        }
      ],
      "payable": false,
      "stateMutability": "pure",
      "type": "function"
    },
    {
      "constant": true,
      "inputs": [],
      "name": "decimals",
      "outputs": [
        {
          "internalType": "uint8",
          "name": "",
          "type": "uint8"
        }
      ],
      "payable": false,
      "stateMutability": "view",
      "type": "function"
    },
    {
      "constant": false,
      "inputs": [
        {
          "internalType": "address",
          "name": "dst",
          "type": "address"
        },
        {
          "internalType": "uint256",
          "name": "amt",
          "type": "uint256"
        }
      ],
      "name": "decreaseApproval",
      "outputs": [
        {
          "internalType": "bool",
          "name": "",
          "type": "bool"
        }
      ],
      "payable": false,
      "stateMutability": "nonpayable",
      "type": "function"
    },
    {
      "constant": true,
      "inputs": [],
      "name": "getColor",
      "outputs": [
        {
          "internalType": "bytes32",
          "name": "",
          "type": "bytes32"
        }
      ],
      "payable": false,
      "stateMutability": "view",
      "type": "function"
    },
    {
      "constant": false,
      "inputs": [
        {
          "internalType": "address",
          "name": "dst",
          "type": "address"
        },
        {
          "internalType": "uint256",
          "name": "amt",
          "type": "uint256"
        }
      ],
      "name": "increaseApproval",
      "outputs": [
        {
          "internalType": "bool",
          "name": "",
          "type": "bool"
        }
      ],
      "payable": false,
      "stateMutability": "nonpayable",
      "type": "function"
    },
    {
      "constant": true,
      "inputs": [],
      "name": "name",
      "outputs": [
        {
          "internalType": "string",
          "name": "",
          "type": "string"
        }
      ],
      "payable": false,
      "stateMutability": "view",
      "type": "function"
    },
    {
      "constant": true,
      "inputs": [],
      "name": "symbol",
      "outputs": [
        {
          "internalType": "string",
          "name": "",
          "type": "string"
        }
      ],
      "payable": false,
      "stateMutability": "view",
      "type": "function"
    },
    {
      "constant": true,
      "inputs": [],
      "name": "totalSupply",
      "outputs": [
        {
          "internalType": "uint256",
          "name": "",
          "type": "uint256"
        }
      ],
      "payable": false,
      "stateMutability": "view",
      "type": "function"
    },
    {
      "constant": false,
      "inputs": [
        {
          "internalType": "address",
          "name": "dst",
          "type": "address"
        },
        {
          "internalType": "uint256",
          "name": "amt",
          "type": "uint256"
        }
      ],
      "name": "transfer",
      "outputs": [
        {
          "internalType": "bool",
          "name": "",
          "type": "bool"
        }
      ],
      "payable": false,
      "stateMutability": "nonpayable",
      "type": "function"
    },
    {
      "constant": false,
      "inputs": [
        {
          "internalType": "address",
          "name": "src",
          "type": "address"
        },
        {
          "internalType": "address",
          "name": "dst",
          "type": "address"
        },
        {
          "internalType": "uint256",
          "name": "amt",
          "type": "uint256"
        }
      ],
      "name": "transferFrom",
      "outputs": [
        {
          "internalType": "bool",
          "name": "",
          "type": "bool"
        }
      ],
      "payable": false,
      "stateMutability": "nonpayable",
      "type": "function"
    },
    {
      "constant": true,
      "inputs": [],
      "name": "isPublicSwap",
      "outputs": [
        {
          "internalType": "bool",
          "name": "",
          "type": "bool"
        }
      ],
      "payable": false,
      "stateMutability": "view",
      "type": "function"
    },
    {
      "constant": true,
      "inputs": [],
      "name": "isFinalized",
      "outputs": [
        {
          "internalType": "bool",
          "name": "",
          "type": "bool"
        }
      ],
      "payable": false,
      "stateMutability": "view",
      "type": "function"
    },
    {
      "constant": true,
      "inputs": [
        {
          "internalType": "address",
          "name": "t",
          "type": "address"
        }
      ],
      "name": "isBound",
      "outputs": [
        {
          "internalType": "bool",
          "name": "",
          "type": "bool"
        }
      ],
      "payable": false,
      "stateMutability": "view",
      "type": "function"
    },
    {
      "constant": true,
      "inputs": [],
      "name": "getNumTokens",
      "outputs": [
        {
          "internalType": "uint256",
          "name": "",
          "type": "uint256"
        }
      ],
      "payable": false,
      "stateMutability": "view",
      "type": "function"
    },
    {
      "constant": true,
      "inputs": [],
      "name": "getCurrentTokens",
      "outputs": [
        {
          "internalType": "address[]",
          "name": "tokens",
          "type": "address[]"
        }
      ],
      "payable": false,
      "stateMutability": "view",
      "type": "function"
    },
    {
      "constant": true,
      "inputs": [],
      "name": "getFinalTokens",
      "outputs": [
        {
          "internalType": "address[]",
          "name": "tokens",
          "type": "address[]"
        }
      ],
      "payable": false,
      "stateMutability": "view",
      "type": "function"
    },
    {
      "constant": true,
      "inputs": [
        {
          "internalType": "address",
          "name": "token",
          "type": "address"
        }
      ],
      "name": "getDenormalizedWeight",
      "outputs": [
        {
          "internalType": "uint256",
          "name": "",
          "type": "uint256"
        }
      ],
      "payable": false,
      "stateMutability": "view",
      "type": "function"
    },
    {
      "constant": true,
      "inputs": [],
      "name": "getTotalDenormalizedWeight",
      "outputs": [
        {
          "internalType": "uint256",
          "name": "",
          "type": "uint256"
        }
      ],
      "payable": false,
      "stateMutability": "view",
      "type": "function"
    },
    {
      "constant": true,
      "inputs": [
        {
          "internalType": "address",
          "name": "token",
          "type": "address"
        }
      ],
      "name": "getNormalizedWeight",
      "outputs": [
        {
          "internalType": "uint256",
          "name": "",
          "type": "uint256"
        }
      ],
      "payable": false,
      "stateMutability": "view",
      "type": "function"
    },
    {
      "constant": true,
      "inputs": [
        {
          "internalType": "address",
          "name": "token",
          "type": "address"
        }
      ],
      "name": "getBalance",
      "outputs": [
        {
          "internalType": "uint256",
          "name": "",
          "type": "uint256"
        }
      ],
      "payable": false,
      "stateMutability": "view",
      "type": "function"
    },
    {
      "constant": true,
      "inputs": [],
      "name": "getSwapFee",
      "outputs": [
        {
          "internalType": "uint256",
          "name": "",
          "type": "uint256"
        }
      ],
      "payable": false,
      "stateMutability": "view",
      "type": "function"
    },
    {
      "constant": true,
      "inputs": [],
      "name": "getController",
      "outputs": [
        {
          "internalType": "address",
          "name": "",
          "type": "address"
        }
      ],
      "payable": false,
      "stateMutability": "view",
      "type": "function"
    },
    {
      "constant": false,
      "inputs": [
        {
          "internalType": "uint256",
          "name": "swapFee",
          "type": "uint256"
        }
      ],
      "name": "setSwapFee",
      "outputs": [],
      "payable": false,
      "stateMutability": "nonpayable",
      "type": "function"
    },
    {
      "constant": false,
      "inputs": [],
      "name": "setController",
      "outputs": [],
      "payable": false,
      "stateMutability": "nonpayable",
      "type": "function"
    },
    {
      "constant": false,
      "inputs": [
        {
          "internalType": "bool",
          "name": "public_",
          "type": "bool"
        }
      ],
      "name": "setPublicSwap",
      "outputs": [],
      "payable": false,
      "stateMutability": "nonpayable",
      "type": "function"
    },
    {
      "constant": false,
      "inputs": [],
      "name": "finalize",
      "outputs": [],
      "payable": false,
      "stateMutability": "nonpayable",
      "type": "function"
    },
    {
      "constant": false,
      "inputs": [
        {
          "internalType": "address",
          "name": "token",
          "type": "address"
        },
        {
          "internalType": "uint256",
          "name": "balance",
          "type": "uint256"
        },
        {
          "internalType": "uint256",
          "name": "denorm",
          "type": "uint256"
        }
      ],
      "name": "bind",
      "outputs": [],
      "payable": false,
      "stateMutability": "nonpayable",
      "type": "function"
    },
    {
      "constant": false,
      "inputs": [
        {
          "internalType": "address",
          "name": "token",
          "type": "address"
        },
        {
          "internalType": "uint256",
          "name": "balance",
          "type": "uint256"
        },
        {
          "internalType": "uint256",
          "name": "denorm",
          "type": "uint256"
        }
      ],
      "name": "rebind",
      "outputs": [],
      "payable": false,
      "stateMutability": "nonpayable",
      "type": "function"
    },
    {
      "constant": false,
      "inputs": [
        {
          "internalType": "address",
          "name": "token",
          "type": "address"
        }
      ],
      "name": "unbind",
      "outputs": [],
      "payable": false,
      "stateMutability": "nonpayable",
      "type": "function"
    },
    {
      "constant": false,
      "inputs": [
        {
          "internalType": "address",
          "name": "token",
          "type": "address"
        }
      ],
      "name": "gulp",
      "outputs": [],
      "payable": false,
      "stateMutability": "nonpayable",
      "type": "function"
    },
    {
      "constant": true,
      "inputs": [
        {
          "internalType": "address",
          "name": "tokenIn",
          "type": "address"
        },
        {
          "internalType": "address",
          "name": "tokenOut",
          "type": "address"
        }
      ],
      "name": "getSpotPrice",
      "outputs": [
        {
          "internalType": "uint256",
          "name": "spotPrice",
          "type": "uint256"
        }
      ],
      "payable": false,
      "stateMutability": "view",
      "type": "function"
    },
    {
      "constant": true,
      "inputs": [
        {
          "internalType": "address",
          "name": "tokenIn",
          "type": "address"
        },
        {
          "internalType": "address",
          "name": "tokenOut",
          "type": "address"
        }
      ],
      "name": "getSpotPriceSansFee",
      "outputs": [
        {
          "internalType": "uint256",
          "name": "spotPrice",
          "type": "uint256"
        }
      ],
      "payable": false,
      "stateMutability": "view",
      "type": "function"
    },
    {
      "constant": false,
      "inputs": [
        {
          "internalType": "uint256",
          "name": "poolAmountOut",
          "type": "uint256"
        },
        {
          "internalType": "uint256[]",
          "name": "maxAmountsIn",
          "type": "uint256[]"
        }
      ],
      "name": "joinPool",
      "outputs": [],
      "payable": false,
      "stateMutability": "nonpayable",
      "type": "function"
    },
    {
      "constant": false,
      "inputs": [
        {
          "internalType": "uint256",
          "name": "poolAmountIn",
          "type": "uint256"
        },
        {
          "internalType": "uint256[]",
          "name": "minAmountsOut",
          "type": "uint256[]"
        }
      ],
      "name": "exitPool",
      "outputs": [],
      "payable": false,
      "stateMutability": "nonpayable",
      "type": "function"
    },
    {
      "constant": false,
      "inputs": [
        {
          "internalType": "address",
          "name": "tokenIn",
          "type": "address"
        },
        {
          "internalType": "uint256",
          "name": "tokenAmountIn",
          "type": "uint256"
        },
        {
          "internalType": "address",
          "name": "tokenOut",
          "type": "address"
        },
        {
          "internalType": "uint256",
          "name": "minAmountOut",
          "type": "uint256"
        },
        {
          "internalType": "uint256",
          "name": "maxPrice",
          "type": "uint256"
        }
      ],
      "name": "swapExactAmountIn",
      "outputs": [
        {
          "internalType": "uint256",
          "name": "tokenAmountOut",
          "type": "uint256"
        },
        {
          "internalType": "uint256",
          "name": "spotPriceAfter",
          "type": "uint256"
        }
      ],
      "payable": false,
      "stateMutability": "nonpayable",
      "type": "function"
    },
    {
      "constant": false,
      "inputs": [
        {
          "internalType": "address",
          "name": "tokenIn",
          "type": "address"
        },
        {
          "internalType": "uint256",
          "name": "maxAmountIn",
          "type": "uint256"
        },
        {
          "internalType": "address",
          "name": "tokenOut",
          "type": "address"
        },
        {
          "internalType": "uint256",
          "name": "tokenAmountOut",
          "type": "uint256"
        },
        {
          "internalType": "uint256",
          "name": "maxPrice",
          "type": "uint256"
        }
      ],
      "name": "swapExactAmountOut",
      "outputs": [
        {
          "internalType": "uint256",
          "name": "tokenAmountIn",
          "type": "uint256"
        },
        {
          "internalType": "uint256",
          "name": "spotPriceAfter",
          "type": "uint256"
        }
      ],
      "payable": false,
      "stateMutability": "nonpayable",
      "type": "function"
    },
    {
      "constant": false,
      "inputs": [
        {
          "internalType": "address",
          "name": "tokenIn",
          "type": "address"
        },
        {
          "internalType": "uint256",
          "name": "tokenAmountIn",
          "type": "uint256"
        },
        {
          "internalType": "uint256",
          "name": "minPoolAmountOut",
          "type": "uint256"
        }
      ],
      "name": "joinswapExternAmountIn",
      "outputs": [
        {
          "internalType": "uint256",
          "name": "poolAmountOut",
          "type": "uint256"
        }
      ],
      "payable": false,
      "stateMutability": "nonpayable",
      "type": "function"
    },
    {
      "constant": false,
      "inputs": [
        {
          "internalType": "address",
          "name": "tokenIn",
          "type": "address"
        },
        {
          "internalType": "uint256",
          "name": "poolAmountOut",
          "type": "uint256"
        },
        {
          "internalType": "uint256",
          "name": "maxAmountIn",
          "type": "uint256"
        }
      ],
      "name": "joinswapPoolAmountOut",
      "outputs": [
        {
          "internalType": "uint256",
          "name": "tokenAmountIn",
          "type": "uint256"
        }
      ],
      "payable": false,
      "stateMutability": "nonpayable",
      "type": "function"
    },
    {
      "constant": false,
      "inputs": [
        {
          "internalType": "address",
          "name": "tokenOut",
          "type": "address"
        },
        {
          "internalType": "uint256",
          "name": "poolAmountIn",
          "type": "uint256"
        },
        {
          "internalType": "uint256",
          "name": "minAmountOut",
          "type": "uint256"
        }
      ],
      "name": "exitswapPoolAmountIn",
      "outputs": [
        {
          "internalType": "uint256",
          "name": "tokenAmountOut",
          "type": "uint256"
        }
      ],
      "payable": false,
      "stateMutability": "nonpayable",
      "type": "function"
    },
    {
      "constant": false,
      "inputs": [
        {
          "internalType": "address",
          "name": "tokenOut",
          "type": "address"
        },
        {
          "internalType": "uint256",
          "name": "tokenAmountOut",
          "type": "uint256"
        },
        {
          "internalType": "uint256",
          "name": "maxPoolAmountIn",
          "type": "uint256"
        }
      ],
      "name": "exitswapExternAmountOut",
      "outputs": [
        {
          "internalType": "uint256",
          "name": "poolAmountIn",
          "type": "uint256"
        }
      ],
      "payable": false,
      "stateMutability": "nonpayable",
      "type": "function"
    }
  ],
  "bytecode": "0x60c0604052601360808190527f42616c616e63657220506f6f6c20546f6b656e0000000000000000000000000060a090815262000040916003919062000107565b506040805180820190915260038082527f42505400000000000000000000000000000000000000000000000000000000006020909201918252620000879160049162000107565b506005805460ff19166012179055348015620000a257600080fd5b5060068054600580546201000033026201000060b060020a031990911617905564e8d4a51000600755600160a060020a03191673600d26686551acfb76cb492a9520bac597fcf2d91760a060020a60ff02191690556008805460ff19169055620001ac565b828054600181600116156101000203166002900490600052602060002090601f016020900481019282601f106200014a57805160ff19168380011785556200017a565b828001600101855582156200017a579182015b828111156200017a5782518255916020019190600101906200015d565b50620001889291506200018c565b5090565b620001a991905b8082111562000188576000815560010162000193565b90565b615ea580620001bc6000396000f3fe608060405234801561001057600080fd5b5060043610610408576000357c0100000000000000000000000000000000000000000000000000000000900480638c28cbe811610237578063bc694ea211610152578063d73dd623116100e5578063ec093021116100b4578063f8b2cb4f11610099578063f8b2cb4f14610cab578063f8d6aed414610cd1578063fde924f714610d0c57610408565b8063ec09302114610c7d578063f1b8a9b714610c8557610408565b8063d73dd62314610bf1578063dd62ed3e14610c1d578063e4a28a521461050e578063e4e1e53814610c4b57610408565b8063cc77828d11610121578063cc77828d14610bb3578063cd2ed8fb14610bbb578063cf5e7bd314610bc3578063d4cadf6814610be957610408565b8063bc694ea214610b4b578063be3bbd2e14610b53578063c36596a614610582578063c6580d1214610bab57610408565b8063a221ee49116101ca578063b7b800a411610199578063b7b800a414610af8578063ba019dab14610b00578063ba9530a614610b08578063bc063e1a14610b4357610408565b8063a221ee4914610a18578063a9059cbb14610a4d578063b02f0b7314610a79578063b0e0d13614610af057610408565b8063948d8ce611610206578063948d8ce6146109da57806395d89b4114610a00578063992e2a9214610a085780639a86139b14610a1057610408565b80638c28cbe81461099c5780638d4e4083146109c2578063936c3477146109ca5780639381cd2b146109d257610408565b806349b595521161032757806376c7a3c7116102ba5780638656b653116102895780638656b65314610916578063867378c51461095157806389298012146109595780638b2704ec1461099457610408565b806376c7a3c71461083a5780637c5e9ea4146108425780638201aa3f1461089b57806382f652ad146108db57610408565b80635db34277116102f65780635db342771461078457806366188463146107b65780636d06dfa0146107e257806370a082311461081457610408565b806349b59552146106ab5780634bb278f3146106ca5780634f69c0d4146106d25780635c1bbaf71461074957610408565b8063218b53821161039f578063313ce5671161036e578063313ce5671461060a57806334e19907146106285780633fdddaa21461064757806346ab38f11461067957610408565b8063218b53821461058257806323b872dd1461058a5780632f37b624146105c05780633018205f146105e657610408565b80631446a7ff116103db5780631446a7ff1461051657806315e84af91461054457806318160ddd14610572578063189d00ca1461057a57610408565b806302c967481461040d57806306fdde0314610451578063095ea7b3146104ce57806309a3bbe41461050e575b600080fd5b61043f6004803603606081101561042357600080fd5b50600160a060020a038135169060208101359060400135610d14565b60408051918252519081900360200190f35b6104596110f7565b6040805160208082528351818301528351919283929083019185019080838360005b8381101561049357818101518382015260200161047b565b50505050905090810190601f1680156104c05780820380516001836020036101000a031916815260200191505b509250505060405180910390f35b6104fa600480360360408110156104e457600080fd5b50600160a060020a03813516906020013561118d565b604080519115158252519081900360200190f35b61043f6111f4565b61043f6004803603604081101561052c57600080fd5b50600160a060020a0381358116916020013516611201565b61043f6004803603604081101561055a57600080fd5b50600160a060020a038135811691602001351661137f565b61043f6114f4565b61043f6114fa565b61043f61150e565b6104fa600480360360608110156105a057600080fd5b50600160a060020a0381358116916020810135909116906040013561151a565b6104fa600480360360208110156105d657600080fd5b5035600160a060020a0316611691565b6105ee6116af565b60408051600160a060020a039092168252519081900360200190f35b610612611710565b6040805160ff9092168252519081900360200190f35b6106456004803603602081101561063e57600080fd5b5035611719565b005b6106456004803603606081101561065d57600080fd5b50600160a060020a03813516906020810135906040013561198b565b61043f6004803603606081101561068f57600080fd5b50600160a060020a038135169060208101359060400135611dd7565b610645600480360360208110156106c157600080fd5b50351515612147565b610645612341565b610645600480360360408110156106e857600080fd5b8135919081019060408101602082013564010000000081111561070a57600080fd5b82018360208201111561071c57600080fd5b8035906020019184602083028401116401000000008311171561073e57600080fd5b5090925090506125c1565b61043f600480360360c081101561075f57600080fd5b5080359060208101359060408101359060608101359060808101359060a0013561292c565b61043f6004803603606081101561079a57600080fd5b50600160a060020a0381351690602081013590604001356129e4565b6104fa600480360360408110156107cc57600080fd5b50600160a060020a038135169060200135612d39565b61043f600480360360608110156107f857600080fd5b50600160a060020a038135169060208101359060400135612e23565b61043f6004803603602081101561082a57600080fd5b5035600160a060020a03166131b8565b61043f6131d3565b610882600480360360a081101561085857600080fd5b50600160a060020a03813581169160208101359160408201351690606081013590608001356131e5565b6040805192835260208301919091528051918290030190f35b610882600480360360a08110156108b157600080fd5b50600160a060020a0381358116916020810135916040820135169060608101359060800135613767565b61043f600480360360c08110156108f157600080fd5b5080359060208101359060408101359060608101359060808101359060a00135613cd0565b61043f600480360360c081101561092c57600080fd5b5080359060208101359060408101359060608101359060808101359060a00135613d8f565b61043f613e30565b61043f600480360360c081101561096f57600080fd5b5080359060208101359060408101359060608101359060808101359060a00135613e44565b610645613ef4565b610645600480360360208110156109b257600080fd5b5035600160a060020a0316614014565b6104fa614221565b61043f61422a565b61043f614282565b61043f600480360360208110156109f057600080fd5b5035600160a060020a031661428f565b61045961436f565b61043f6143d0565b61043f6143dc565b61043f600480360360a0811015610a2e57600080fd5b5080359060208101359060408101359060608101359060800135614400565b6104fa60048036036040811015610a6357600080fd5b50600160a060020a038135169060200135614465565b61064560048036036040811015610a8f57600080fd5b81359190810190604081016020820135640100000000811115610ab157600080fd5b820183602082011115610ac357600080fd5b80359060200191846020830284011164010000000083111715610ae557600080fd5b50909250905061447b565b61043f614833565b61043f614838565b61043f61483d565b61043f600480360360c0811015610b1e57600080fd5b5080359060208101359060408101359060608101359060808101359060a00135614842565b61043f6148c3565b61043f6148d3565b610b5b6148df565b60408051602080825283518183015283519192839290830191858101910280838360005b83811015610b97578181015183820152602001610b7f565b505050509050019250505060405180910390f35b61043f6149e9565b610b5b6149ee565b61043f614a3f565b61064560048036036020811015610bd957600080fd5b5035600160a060020a0316614a45565b61043f614e32565b6104fa60048036036040811015610c0757600080fd5b50600160a060020a038135169060200135614e8a565b61043f60048036036040811015610c3357600080fd5b50600160a060020a0381358116916020013516614f1d565b61064560048036036060811015610c6157600080fd5b50600160a060020a038135169060208101359060400135614f48565b61043f61521a565b61043f60048036036020811015610c9b57600080fd5b5035600160a060020a031661522a565b61043f60048036036020811015610cc157600080fd5b5035600160a060020a031661531c565b61043f600480360360c0811015610ce757600080fd5b5080359060208101359060408101359060608101359060808101359060a001356153fc565b6104fa61547f565b600033600160a060020a03166000357bffffffffffffffffffffffffffffffffffffffffffffffffffffffff19167bffffffffffffffffffffffffffffffffffffffffffffffffffffffff191660003660405180806020018281038252848482818152602001925080828437600083820152604051601f909101601f19169092018290039550909350505050a2600554610100900460ff1615610def576040805160e560020a62461bcd02815260206004820152600b6024820152600080516020615e51833981519152604482015290519081900360640190fd5b6005805461ff00191661010017905560085460ff16610e58576040805160e560020a62461bcd02815260206004820152601160248201527f4552525f4e4f545f46494e414c495a4544000000000000000000000000000000604482015290519081900360640190fd5b600160a060020a0384166000908152600a602052604090205460ff16610ec8576040805160e560020a62461bcd02815260206004820152600d60248201527f4552525f4e4f545f424f554e4400000000000000000000000000000000000000604482015290519081900360640190fd5b600160a060020a0384166000908152600a60205260409020600390810154610efd91670de0b6b3a76400005b046001016154a0565b831115610f54576040805160e560020a62461bcd02815260206004820152601160248201527f4552525f4d41585f4f55545f524154494f000000000000000000000000000000604482015290519081900360640190fd5b600160a060020a0384166000908152600a6020526040902060038101546002808301549054600b54600754610f8e94939291908990613cd0565b915081610fe5576040805160e560020a62461bcd02815260206004820152600f60248201527f4552525f4d4154485f415050524f580000000000000000000000000000000000604482015290519081900360640190fd5b8282111561103d576040805160e560020a62461bcd02815260206004820152600c60248201527f4552525f4c494d49545f494e0000000000000000000000000000000000000000604482015290519081900360640190fd5b61104b816003015485615589565b6003820155600061105c83826154a0565b604080518781529051919250600160a060020a0388169133917fe74c91552b64c2e2e7bd255639e004e693bd3e1d01cc33e65610b86afcc1ffed919081900360200190a36110aa33846155fa565b6110bc6110b78483615589565b615608565b6005546110d890620100009004600160a060020a031682615614565b6110e386338761561e565b50506005805461ff00191690559392505050565b60038054604080516020601f60026000196101006001881615020190951694909404938401819004810282018101909252828152606093909290918301828280156111835780601f1061115857610100808354040283529160200191611183565b820191906000526020600020905b81548152906001019060200180831161116657829003601f168201915b5050505050905090565b336000818152600160209081526040808320600160a060020a038716808552908352818420869055815186815291519394909390927f8c5be1e5ebec7d5bd14f71427d1e84f3dd0314c0f7b2291e5b200ac8c7c3b925928290030190a35060015b92915050565b6802b5e3af16b188000081565b600554600090610100900460ff1615611252576040805160e560020a62461bcd02815260206004820152600b6024820152600080516020615e51833981519152604482015290519081900360640190fd5b600160a060020a0383166000908152600a602052604090205460ff166112c2576040805160e560020a62461bcd02815260206004820152600d60248201527f4552525f4e4f545f424f554e4400000000000000000000000000000000000000604482015290519081900360640190fd5b600160a060020a0382166000908152600a602052604090205460ff16611332576040805160e560020a62461bcd02815260206004820152600d60248201527f4552525f4e4f545f424f554e4400000000000000000000000000000000000000604482015290519081900360640190fd5b600160a060020a038084166000908152600a602052604080822092851682528120600380840154600280860154928401549084015493946113769492939290614400565b95945050505050565b600554600090610100900460ff16156113d0576040805160e560020a62461bcd02815260206004820152600b6024820152600080516020615e51833981519152604482015290519081900360640190fd5b600160a060020a0383166000908152600a602052604090205460ff16611440576040805160e560020a62461bcd02815260206004820152600d60248201527f4552525f4e4f545f424f554e4400000000000000000000000000000000000000604482015290519081900360640190fd5b600160a060020a0382166000908152600a602052604090205460ff166114b0576040805160e560020a62461bcd02815260206004820152600d60248201527f4552525f4e4f545f424f554e4400000000000000000000000000000000000000604482015290519081900360640190fd5b600160a060020a038084166000908152600a602052604080822092851682529020600380830154600280850154928401549084015460075461137694929190614400565b60025490565b6402540be400670de0b6b3a76400005b0481565b670de0b6b3a764000081565b600033600160a060020a03851614806115565750600160a060020a03841660009081526001602090815260408083203384529091529020548211155b6115aa576040805160e560020a62461bcd02815260206004820152601560248201527f4552525f42544f4b454e5f4241445f43414c4c45520000000000000000000000604482015290519081900360640190fd5b6115b5848484615713565b33600160a060020a038516148015906115f35750600160a060020a038416600090815260016020908152604080832033845290915290205460001914155b1561168757600160a060020a03841660009081526001602090815260408083203384529091529020546116269083615589565b600160a060020a03858116600090815260016020908152604080832033808552908352928190208590558051948552519287169391927f8c5be1e5ebec7d5bd14f71427d1e84f3dd0314c0f7b2291e5b200ac8c7c3b9259281900390910190a35b5060019392505050565b600160a060020a03166000908152600a602052604090205460ff1690565b600554600090610100900460ff1615611700576040805160e560020a62461bcd02815260206004820152600b6024820152600080516020615e51833981519152604482015290519081900360640190fd5b50600654600160a060020a031690565b60055460ff1690565b33600160a060020a03166000357bffffffffffffffffffffffffffffffffffffffffffffffffffffffff19167bffffffffffffffffffffffffffffffffffffffffffffffffffffffff191660003660405180806020018281038252848482818152602001925080828437600083820152604051601f909101601f19169092018290039550909350505050a2600554610100900460ff16156117f2576040805160e560020a62461bcd02815260206004820152600b6024820152600080516020615e51833981519152604482015290519081900360640190fd5b6005805461ff00191661010017905560085460ff161561185c576040805160e560020a62461bcd02815260206004820152601060248201527f4552525f49535f46494e414c495a454400000000000000000000000000000000604482015290519081900360640190fd5b600654600160a060020a031633146118be576040805160e560020a62461bcd02815260206004820152601260248201527f4552525f4e4f545f434f4e54524f4c4c45520000000000000000000000000000604482015290519081900360640190fd5b64e8d4a5100081101561191b576040805160e560020a62461bcd02815260206004820152600b60248201527f4552525f4d494e5f464545000000000000000000000000000000000000000000604482015290519081900360640190fd5b67016345785d8a000081111561197b576040805160e560020a62461bcd02815260206004820152600b60248201527f4552525f4d41585f464545000000000000000000000000000000000000000000604482015290519081900360640190fd5b6007556005805461ff0019169055565b33600160a060020a03166000357bffffffffffffffffffffffffffffffffffffffffffffffffffffffff19167bffffffffffffffffffffffffffffffffffffffffffffffffffffffff191660003660405180806020018281038252848482818152602001925080828437600083820152604051601f909101601f19169092018290039550909350505050a2600554610100900460ff1615611a64576040805160e560020a62461bcd02815260206004820152600b6024820152600080516020615e51833981519152604482015290519081900360640190fd5b6005805461ff00191661010017905560065433600160a060020a0390911614611ad7576040805160e560020a62461bcd02815260206004820152601260248201527f4552525f4e4f545f434f4e54524f4c4c45520000000000000000000000000000604482015290519081900360640190fd5b600160a060020a0383166000908152600a602052604090205460ff16611b47576040805160e560020a62461bcd02815260206004820152600d60248201527f4552525f4e4f545f424f554e4400000000000000000000000000000000000000604482015290519081900360640190fd5b60085460ff1615611ba2576040805160e560020a62461bcd02815260206004820152601060248201527f4552525f49535f46494e414c495a454400000000000000000000000000000000604482015290519081900360640190fd5b6802b5e3af16b1880000811115611c03576040805160e560020a62461bcd02815260206004820152600e60248201527f4552525f4d41585f574549474854000000000000000000000000000000000000604482015290519081900360640190fd5b620f4240821015611c5e576040805160e560020a62461bcd02815260206004820152600f60248201527f4552525f4d494e5f42414c414e43450000000000000000000000000000000000604482015290519081900360640190fd5b600160a060020a0383166000908152600a602052604090206002015480821115611d0157611c97600b54611c928484615589565b61582f565b600b8190556802b5e3af16b18800001015611cfc576040805160e560020a62461bcd02815260206004820152601460248201527f4552525f4d41585f544f54414c5f574549474854000000000000000000000000604482015290519081900360640190fd5b611d22565b80821015611d2257611d1e600b54611d198385615589565b615589565b600b555b600160a060020a0384166000908152600a602052604090206002810183905560030180549084905580841115611d6b57611d668533611d618785615589565b61588c565b611dc5565b80841015611dc5576000611d7f8286615589565b90506000611d8e8260006154a0565b9050611da48733611d9f8585615589565b61561e565b600554611dc2908890620100009004600160a060020a03168361561e565b50505b50506005805461ff0019169055505050565b600033600160a060020a03166000357bffffffffffffffffffffffffffffffffffffffffffffffffffffffff19167bffffffffffffffffffffffffffffffffffffffffffffffffffffffff191660003660405180806020018281038252848482818152602001925080828437600083820152604051601f909101601f19169092018290039550909350505050a2600554610100900460ff1615611eb2576040805160e560020a62461bcd02815260206004820152600b6024820152600080516020615e51833981519152604482015290519081900360640190fd5b6005805461ff00191661010017905560085460ff16611f1b576040805160e560020a62461bcd02815260206004820152601160248201527f4552525f4e4f545f46494e414c495a4544000000000000000000000000000000604482015290519081900360640190fd5b600160a060020a0384166000908152600a602052604090205460ff16611f8b576040805160e560020a62461bcd02815260206004820152600d60248201527f4552525f4e4f545f424f554e4400000000000000000000000000000000000000604482015290519081900360640190fd5b600160a060020a0384166000908152600a6020526040902060038101546002808301549054600b54600754611fc594939291908990613e44565b91508282101561201f576040805160e560020a62461bcd02815260206004820152600d60248201527f4552525f4c494d49545f4f555400000000000000000000000000000000000000604482015290519081900360640190fd5b600160a060020a0385166000908152600a6020526040902060039081015461204f91670de0b6b3a7640000610ef4565b8211156120a6576040805160e560020a62461bcd02815260206004820152601160248201527f4552525f4d41585f4f55545f524154494f000000000000000000000000000000604482015290519081900360640190fd5b6120b4816003015483615589565b600382015560006120c585826154a0565b604080518581529051919250600160a060020a0388169133917fe74c91552b64c2e2e7bd255639e004e693bd3e1d01cc33e65610b86afcc1ffed919081900360200190a361211333866155fa565b6121206110b78683615589565b60055461213c90620100009004600160a060020a031682615614565b6110e386338561561e565b33600160a060020a03166000357bffffffffffffffffffffffffffffffffffffffffffffffffffffffff19167bffffffffffffffffffffffffffffffffffffffffffffffffffffffff191660003660405180806020018281038252848482818152602001925080828437600083820152604051601f909101601f19169092018290039550909350505050a2600554610100900460ff1615612220576040805160e560020a62461bcd02815260206004820152600b6024820152600080516020615e51833981519152604482015290519081900360640190fd5b6005805461ff00191661010017905560085460ff161561228a576040805160e560020a62461bcd02815260206004820152601060248201527f4552525f49535f46494e414c495a454400000000000000000000000000000000604482015290519081900360640190fd5b600654600160a060020a031633146122ec576040805160e560020a62461bcd02815260206004820152601260248201527f4552525f4e4f545f434f4e54524f4c4c45520000000000000000000000000000604482015290519081900360640190fd5b6006805491151574010000000000000000000000000000000000000000027fffffffffffffffffffffff00ffffffffffffffffffffffffffffffffffffffff9092169190911790556005805461ff0019169055565b33600160a060020a03166000357bffffffffffffffffffffffffffffffffffffffffffffffffffffffff19167bffffffffffffffffffffffffffffffffffffffffffffffffffffffff191660003660405180806020018281038252848482818152602001925080828437600083820152604051601f909101601f19169092018290039550909350505050a2600554610100900460ff161561241a576040805160e560020a62461bcd02815260206004820152600b6024820152600080516020615e51833981519152604482015290519081900360640190fd5b6005805461ff00191661010017905560065433600160a060020a039091161461248d576040805160e560020a62461bcd02815260206004820152601260248201527f4552525f4e4f545f434f4e54524f4c4c45520000000000000000000000000000604482015290519081900360640190fd5b60085460ff16156124e8576040805160e560020a62461bcd02815260206004820152601060248201527f4552525f49535f46494e414c495a454400000000000000000000000000000000604482015290519081900360640190fd5b60095460021115612543576040805160e560020a62461bcd02815260206004820152600e60248201527f4552525f4d494e5f544f4b454e53000000000000000000000000000000000000604482015290519081900360640190fd5b6008805460ff19166001179055600680547fffffffffffffffffffffff00ffffffffffffffffffffffffffffffffffffffff16740100000000000000000000000000000000000000001790556125a168056bc75e2d631000006158fe565b6125b43368056bc75e2d63100000615614565b6005805461ff0019169055565b33600160a060020a03166000357bffffffffffffffffffffffffffffffffffffffffffffffffffffffff19167bffffffffffffffffffffffffffffffffffffffffffffffffffffffff191660003660405180806020018281038252848482818152602001925080828437600083820152604051601f909101601f19169092018290039550909350505050a2600554610100900460ff161561269a576040805160e560020a62461bcd02815260206004820152600b6024820152600080516020615e51833981519152604482015290519081900360640190fd5b6005805461ff00191661010017905560085460ff16612703576040805160e560020a62461bcd02815260206004820152601160248201527f4552525f4e4f545f46494e414c495a4544000000000000000000000000000000604482015290519081900360640190fd5b600061270d6114f4565b9050600061271b8583615907565b905080612772576040805160e560020a62461bcd02815260206004820152600f60248201527f4552525f4d4154485f415050524f580000000000000000000000000000000000604482015290519081900360640190fd5b60005b6009548110156129185760006009828154811061278e57fe5b6000918252602080832090910154600160a060020a0316808352600a9091526040822060030154909250906127c385836154a0565b90508061281a576040805160e560020a62461bcd02815260206004820152600f60248201527f4552525f4d4154485f415050524f580000000000000000000000000000000000604482015290519081900360640190fd5b87878581811061282657fe5b90506020020135811115612884576040805160e560020a62461bcd02815260206004820152600c60248201527f4552525f4c494d49545f494e0000000000000000000000000000000000000000604482015290519081900360640190fd5b600160a060020a0383166000908152600a60205260409020600301546128aa908261582f565b600160a060020a0384166000818152600a60209081526040918290206003019390935580518481529051919233927f63982df10efd8dfaaaa0fcc7f50b2d93b7cba26ccc48adee2873220d485dc39a9281900390910190a361290d83338361588c565b505050600101612775565b50612922856158fe565b611dc53386615614565b6000806129398786615907565b90506000612947878661582f565b905060006129558289615907565b9050600061296b670de0b6b3a764000085615907565b905060006129798383615a43565b90506000612987828e6154a0565b90506000612995828f615589565b905060006129b46129ae670de0b6b3a76400008a615589565b8b6154a0565b90506129d1826129cc670de0b6b3a764000084615589565b615907565b9f9e505050505050505050505050505050565b600033600160a060020a03166000357bffffffffffffffffffffffffffffffffffffffffffffffffffffffff19167bffffffffffffffffffffffffffffffffffffffffffffffffffffffff191660003660405180806020018281038252848482818152602001925080828437600083820152604051601f909101601f19169092018290039550909350505050a2600554610100900460ff1615612abf576040805160e560020a62461bcd02815260206004820152600b6024820152600080516020615e51833981519152604482015290519081900360640190fd5b6005805461ff00191661010017905560085460ff16612b28576040805160e560020a62461bcd02815260206004820152601160248201527f4552525f4e4f545f46494e414c495a4544000000000000000000000000000000604482015290519081900360640190fd5b600160a060020a0384166000908152600a602052604090205460ff16612b98576040805160e560020a62461bcd02815260206004820152600d60248201527f4552525f4e4f545f424f554e4400000000000000000000000000000000000000604482015290519081900360640190fd5b600160a060020a0384166000908152600a6020526040902060030154612bca906002670de0b6b3a76400005b046154a0565b831115612c21576040805160e560020a62461bcd02815260206004820152601060248201527f4552525f4d41585f494e5f524154494f00000000000000000000000000000000604482015290519081900360640190fd5b600160a060020a0384166000908152600a6020526040902060038101546002808301549054600b54600754612c5b94939291908990613d8f565b915082821015612cb5576040805160e560020a62461bcd02815260206004820152600d60248201527f4552525f4c494d49545f4f555400000000000000000000000000000000000000604482015290519081900360640190fd5b612cc381600301548561582f565b6003820155604080518581529051600160a060020a0387169133917f63982df10efd8dfaaaa0fcc7f50b2d93b7cba26ccc48adee2873220d485dc39a9181900360200190a3612d11826158fe565b612d1b3383615614565b612d2685338661588c565b506005805461ff00191690559392505050565b336000908152600160209081526040808320600160a060020a038616845290915281205480831115612d8e57336000908152600160209081526040808320600160a060020a0388168452909152812055612dbd565b612d988184615589565b336000908152600160209081526040808320600160a060020a03891684529091529020555b336000818152600160209081526040808320600160a060020a0389168085529083529281902054815190815290519293927f8c5be1e5ebec7d5bd14f71427d1e84f3dd0314c0f7b2291e5b200ac8c7c3b925929181900390910190a35060019392505050565b600033600160a060020a03166000357bffffffffffffffffffffffffffffffffffffffffffffffffffffffff19167bffffffffffffffffffffffffffffffffffffffffffffffffffffffff191660003660405180806020018281038252848482818152602001925080828437600083820152604051601f909101601f19169092018290039550909350505050a2600554610100900460ff1615612efe576040805160e560020a62461bcd02815260206004820152600b6024820152600080516020615e51833981519152604482015290519081900360640190fd5b6005805461ff00191661010017905560085460ff16612f67576040805160e560020a62461bcd02815260206004820152601160248201527f4552525f4e4f545f46494e414c495a4544000000000000000000000000000000604482015290519081900360640190fd5b600160a060020a0384166000908152600a602052604090205460ff16612fd7576040805160e560020a62461bcd02815260206004820152600d60248201527f4552525f4e4f545f424f554e4400000000000000000000000000000000000000604482015290519081900360640190fd5b600160a060020a0384166000908152600a6020526040902060038101546002808301549054600b546007546130119493929190899061292c565b915081613068576040805160e560020a62461bcd02815260206004820152600f60248201527f4552525f4d4154485f415050524f580000000000000000000000000000000000604482015290519081900360640190fd5b828211156130c0576040805160e560020a62461bcd02815260206004820152600c60248201527f4552525f4c494d49545f494e0000000000000000000000000000000000000000604482015290519081900360640190fd5b600160a060020a0385166000908152600a60205260409020600301546130f0906002670de0b6b3a7640000612bc4565b821115613147576040805160e560020a62461bcd02815260206004820152601060248201527f4552525f4d41585f494e5f524154494f00000000000000000000000000000000604482015290519081900360640190fd5b61315581600301548361582f565b6003820155604080518381529051600160a060020a0387169133917f63982df10efd8dfaaaa0fcc7f50b2d93b7cba26ccc48adee2873220d485dc39a9181900360200190a36131a3846158fe565b6131ad3385615614565b612d2685338461588c565b600160a060020a031660009081526020819052604090205490565b620f4240670de0b6b3a764000061150a565b60408051602080825236908201819052600092839233927bffffffffffffffffffffffffffffffffffffffffffffffffffffffff198535169285929081908101848480828437600083820152604051601f909101601f19169092018290039550909350505050a2600554610100900460ff161561329a576040805160e560020a62461bcd02815260206004820152600b6024820152600080516020615e51833981519152604482015290519081900360640190fd5b6005805461ff001916610100179055600160a060020a0387166000908152600a602052604090205460ff16613319576040805160e560020a62461bcd02815260206004820152600d60248201527f4552525f4e4f545f424f554e4400000000000000000000000000000000000000604482015290519081900360640190fd5b600160a060020a0385166000908152600a602052604090205460ff16613389576040805160e560020a62461bcd02815260206004820152600d60248201527f4552525f4e4f545f424f554e4400000000000000000000000000000000000000604482015290519081900360640190fd5b60065474010000000000000000000000000000000000000000900460ff166133fb576040805160e560020a62461bcd02815260206004820152601360248201527f4552525f535741505f4e4f545f5055424c494300000000000000000000000000604482015290519081900360640190fd5b600160a060020a038088166000908152600a60205260408082209288168252902060038082015461343491670de0b6b3a7640000610ef4565b86111561348b576040805160e560020a62461bcd02815260206004820152601160248201527f4552525f4d41585f4f55545f524154494f000000000000000000000000000000604482015290519081900360640190fd5b60006134ac8360030154846002015484600301548560020154600754614400565b905085811115613506576040805160e560020a62461bcd02815260206004820152601360248201527f4552525f4241445f4c494d49545f505249434500000000000000000000000000604482015290519081900360640190fd5b61352683600301548460020154846003015485600201548b6007546153fc565b945088851115613580576040805160e560020a62461bcd02815260206004820152600c60248201527f4552525f4c494d49545f494e0000000000000000000000000000000000000000604482015290519081900360640190fd5b61358e83600301548661582f565b83600301819055506135a4826003015488615589565b6003808401829055840154600280860154908501546007546135c7949190614400565b935080841015613621576040805160e560020a62461bcd02815260206004820152600f60248201527f4552525f4d4154485f415050524f580000000000000000000000000000000000604482015290519081900360640190fd5b85841115613679576040805160e560020a62461bcd02815260206004820152600f60248201527f4552525f4c494d49545f50524943450000000000000000000000000000000000604482015290519081900360640190fd5b6136838588615907565b8111156136da576040805160e560020a62461bcd02815260206004820152600f60248201527f4552525f4d4154485f415050524f580000000000000000000000000000000000604482015290519081900360640190fd5b87600160a060020a03168a600160a060020a031633600160a060020a03167f908fb5ee8f16c6bc9bc3690973819f32a4d4b10188134543c88706e0e1d43378888b604051808381526020018281526020019250505060405180910390a46137428a338761588c565b61374d88338961561e565b5050506005805461ff001916905590969095509350505050565b60408051602080825236908201819052600092839233927bffffffffffffffffffffffffffffffffffffffffffffffffffffffff198535169285929081908101848480828437600083820152604051601f909101601f19169092018290039550909350505050a2600554610100900460ff161561381c576040805160e560020a62461bcd02815260206004820152600b6024820152600080516020615e51833981519152604482015290519081900360640190fd5b6005805461ff001916610100179055600160a060020a0387166000908152600a602052604090205460ff1661389b576040805160e560020a62461bcd02815260206004820152600d60248201527f4552525f4e4f545f424f554e4400000000000000000000000000000000000000604482015290519081900360640190fd5b600160a060020a0385166000908152600a602052604090205460ff1661390b576040805160e560020a62461bcd02815260206004820152600d60248201527f4552525f4e4f545f424f554e4400000000000000000000000000000000000000604482015290519081900360640190fd5b60065474010000000000000000000000000000000000000000900460ff1661397d576040805160e560020a62461bcd02815260206004820152601360248201527f4552525f535741505f4e4f545f5055424c494300000000000000000000000000604482015290519081900360640190fd5b600160a060020a038088166000908152600a60205260408082209288168252902060038201546139b7906002670de0b6b3a7640000612bc4565b881115613a0e576040805160e560020a62461bcd02815260206004820152601060248201527f4552525f4d41585f494e5f524154494f00000000000000000000000000000000604482015290519081900360640190fd5b6000613a2f8360030154846002015484600301548560020154600754614400565b905085811115613a89576040805160e560020a62461bcd02815260206004820152601360248201527f4552525f4241445f4c494d49545f505249434500000000000000000000000000604482015290519081900360640190fd5b613aa983600301548460020154846003015485600201548d600754614842565b945086851015613b03576040805160e560020a62461bcd02815260206004820152600d60248201527f4552525f4c494d49545f4f555400000000000000000000000000000000000000604482015290519081900360640190fd5b613b1183600301548a61582f565b8360030181905550613b27826003015486615589565b600380840182905584015460028086015490850154600754613b4a949190614400565b935080841015613ba4576040805160e560020a62461bcd02815260206004820152600f60248201527f4552525f4d4154485f415050524f580000000000000000000000000000000000604482015290519081900360640190fd5b85841115613bfc576040805160e560020a62461bcd02815260206004820152600f60248201527f4552525f4c494d49545f50524943450000000000000000000000000000000000604482015290519081900360640190fd5b613c068986615907565b811115613c5d576040805160e560020a62461bcd02815260206004820152600f60248201527f4552525f4d4154485f415050524f580000000000000000000000000000000000604482015290519081900360640190fd5b87600160a060020a03168a600160a060020a031633600160a060020a03167f908fb5ee8f16c6bc9bc3690973819f32a4d4b10188134543c88706e0e1d433788c89604051808381526020018281526020019250505060405180910390a4613cc58a338b61588c565b61374d88338761561e565b600080613cdd8786615907565b90506000613cf3670de0b6b3a764000083615589565b90506000613d0182866154a0565b90506000613d1b876129cc670de0b6b3a764000085615589565b90506000613d298c83615589565b90506000613d37828e615907565b90506000613d458288615a43565b90506000613d53828e6154a0565b90506000613d618e83615589565b9050613d7a816129cc670de0b6b3a76400006000615589565b99505050505050505050509695505050505050565b600080613d9c8786615907565b90506000613dbb613db5670de0b6b3a764000084615589565b856154a0565b90506000613dda86613dd5670de0b6b3a764000085615589565b6154a0565b90506000613de88b8361582f565b90506000613df6828d615907565b90506000613e048287615a43565b90506000613e12828d6154a0565b9050613e1e818d615589565b9e9d5050505050505050505050505050565b64e8d4a51000670de0b6b3a764000061150a565b600080613e518786615907565b90506000613e6c85613dd5670de0b6b3a76400006000615589565b90506000613e7a8883615589565b90506000613e88828a615907565b90506000613ea782613ea2670de0b6b3a764000088615907565b615a43565b90506000613eb5828e6154a0565b90506000613ec38e83615589565b90506000613edc6129ae670de0b6b3a76400008a615589565b90506129d182613dd5670de0b6b3a764000084615589565b33600160a060020a03166000357bffffffffffffffffffffffffffffffffffffffffffffffffffffffff19167bffffffffffffffffffffffffffffffffffffffffffffffffffffffff191660003660405180806020018281038252848482818152602001925080828437600083820152604051601f909101601f19169092018290039550909350505050a2600554610100900460ff1615613fcd576040805160e560020a62461bcd02815260206004820152600b6024820152600080516020615e51833981519152604482015290519081900360640190fd5b600580546006805473ffffffffffffffffffffffffffffffffffffffff191673600d26686551acfb76cb492a9520bac597fcf2d917905561ff001990811661010017169055565b33600160a060020a03166000357bffffffffffffffffffffffffffffffffffffffffffffffffffffffff19167bffffffffffffffffffffffffffffffffffffffffffffffffffffffff191660003660405180806020018281038252848482818152602001925080828437600083820152604051601f909101601f19169092018290039550909350505050a2600554610100900460ff16156140ed576040805160e560020a62461bcd02815260206004820152600b6024820152600080516020615e51833981519152604482015290519081900360640190fd5b6005805461ff001916610100179055600160a060020a0381166000908152600a602052604090205460ff1661416c576040805160e560020a62461bcd02815260206004820152600d60248201527f4552525f4e4f545f424f554e4400000000000000000000000000000000000000604482015290519081900360640190fd5b604080517f70a082310000000000000000000000000000000000000000000000000000000081523060048201529051600160a060020a038316916370a08231916024808301926020929190829003018186803b1580156141cb57600080fd5b505afa1580156141df573d6000803e3d6000fd5b505050506040513d60208110156141f557600080fd5b5051600160a060020a039091166000908152600a60205260409020600301556005805461ff0019169055565b60085460ff1690565b600554600090610100900460ff161561427b576040805160e560020a62461bcd02815260206004820152600b6024820152600080516020615e51833981519152604482015290519081900360640190fd5b50600b5490565b68056bc75e2d6310000081565b600554600090610100900460ff16156142e0576040805160e560020a62461bcd02815260206004820152600b6024820152600080516020615e51833981519152604482015290519081900360640190fd5b600160a060020a0382166000908152600a602052604090205460ff16614350576040805160e560020a62461bcd02815260206004820152600d60248201527f4552525f4e4f545f424f554e4400000000000000000000000000000000000000604482015290519081900360640190fd5b50600160a060020a03166000908152600a602052604090206002015490565b60048054604080516020601f60026000196101006001881615020190951694909404938401819004810282018101909252828152606093909290918301828280156111835780601f1061115857610100808354040283529160200191611183565b6704a03ce68d21555681565b7f42524f4e5a45000000000000000000000000000000000000000000000000000090565b60008061440d8787615907565b9050600061441b8686615907565b905060006144298383615907565b9050600061444b670de0b6b3a76400006129cc670de0b6b3a764000089615589565b905061445782826154a0565b9a9950505050505050505050565b6000614472338484615713565b50600192915050565b33600160a060020a03166000357bffffffffffffffffffffffffffffffffffffffffffffffffffffffff19167bffffffffffffffffffffffffffffffffffffffffffffffffffffffff191660003660405180806020018281038252848482818152602001925080828437600083820152604051601f909101601f19169092018290039550909350505050a2600554610100900460ff1615614554576040805160e560020a62461bcd02815260206004820152600b6024820152600080516020615e51833981519152604482015290519081900360640190fd5b6005805461ff00191661010017905560085460ff166145bd576040805160e560020a62461bcd02815260206004820152601160248201527f4552525f4e4f545f46494e414c495a4544000000000000000000000000000000604482015290519081900360640190fd5b60006145c76114f4565b905060006145d68560006154a0565b905060006145e48683615589565b905060006145f28285615907565b905080614649576040805160e560020a62461bcd02815260206004820152600f60248201527f4552525f4d4154485f415050524f580000000000000000000000000000000000604482015290519081900360640190fd5b61465333886155fa565b60055461466f90620100009004600160a060020a031684615614565b61467882615608565b60005b60095481101561481e5760006009828154811061469457fe5b6000918252602080832090910154600160a060020a0316808352600a9091526040822060030154909250906146c985836154a0565b905080614720576040805160e560020a62461bcd02815260206004820152600f60248201527f4552525f4d4154485f415050524f580000000000000000000000000000000000604482015290519081900360640190fd5b89898581811061472c57fe5b9050602002013581101561478a576040805160e560020a62461bcd02815260206004820152600d60248201527f4552525f4c494d49545f4f555400000000000000000000000000000000000000604482015290519081900360640190fd5b600160a060020a0383166000908152600a60205260409020600301546147b09082615589565b600160a060020a0384166000818152600a60209081526040918290206003019390935580518481529051919233927fe74c91552b64c2e2e7bd255639e004e693bd3e1d01cc33e65610b86afcc1ffed9281900390910190a361481383338361561e565b50505060010161467b565b50506005805461ff0019169055505050505050565b600881565b600281565b600181565b60008061484f8786615907565b90506000614865670de0b6b3a764000085615589565b905061487185826154a0565b905060006148838a6129cc8c8561582f565b905060006148918285615a43565b905060006148a7670de0b6b3a764000083615589565b90506148b38a826154a0565b9c9b505050505050505050505050565b600a670de0b6b3a764000061150a565b671bc16d674ec7ffff81565b600554606090610100900460ff1615614930576040805160e560020a62461bcd02815260206004820152600b6024820152600080516020615e51833981519152604482015290519081900360640190fd5b60085460ff1661498a576040805160e560020a62461bcd02815260206004820152601160248201527f4552525f4e4f545f46494e414c495a4544000000000000000000000000000000604482015290519081900360640190fd5b600980548060200260200160405190810160405280929190818152602001828054801561118357602002820191906000526020600020905b8154600160a060020a031681526001909101906020018083116149c2575050505050905090565b600081565b600554606090610100900460ff161561498a576040805160e560020a62461bcd02815260206004820152600b6024820152600080516020615e51833981519152604482015290519081900360640190fd5b60095490565b33600160a060020a03166000357bffffffffffffffffffffffffffffffffffffffffffffffffffffffff19167bffffffffffffffffffffffffffffffffffffffffffffffffffffffff191660003660405180806020018281038252848482818152602001925080828437600083820152604051601f909101601f19169092018290039550909350505050a2600554610100900460ff1615614b1e576040805160e560020a62461bcd02815260206004820152600b6024820152600080516020615e51833981519152604482015290519081900360640190fd5b6005805461ff00191661010017905560065433600160a060020a0390911614614b91576040805160e560020a62461bcd02815260206004820152601260248201527f4552525f4e4f545f434f4e54524f4c4c45520000000000000000000000000000604482015290519081900360640190fd5b600160a060020a0381166000908152600a602052604090205460ff16614c01576040805160e560020a62461bcd02815260206004820152600d60248201527f4552525f4e4f545f424f554e4400000000000000000000000000000000000000604482015290519081900360640190fd5b60085460ff1615614c5c576040805160e560020a62461bcd02815260206004820152601060248201527f4552525f49535f46494e414c495a454400000000000000000000000000000000604482015290519081900360640190fd5b600160a060020a0381166000908152600a602052604081206003015490614c8382826154a0565b600b54600160a060020a0385166000908152600a6020526040902060020154919250614cae91615589565b600b55600160a060020a0383166000908152600a6020526040902060010154600980546000198101919082908110614ce257fe5b60009182526020909120015460098054600160a060020a039092169184908110614d0857fe5b9060005260206000200160006101000a815481600160a060020a030219169083600160a060020a0316021790555081600a600060098581548110614d4857fe5b6000918252602080832090910154600160a060020a031683528201929092526040019020600101556009805480614d7b57fe5b600082815260208082206000199084018101805473ffffffffffffffffffffffffffffffffffffffff191690559092019092556040805160808101825283815280830184815281830185815260608301868152600160a060020a038c168752600a909552929094209051815460ff19169015151781559251600184015551600283015551600390910155614e148533611d9f8787615589565b600554611dc5908690620100009004600160a060020a03168561561e565b600554600090610100900460ff1615614e83576040805160e560020a62461bcd02815260206004820152600b6024820152600080516020615e51833981519152604482015290519081900360640190fd5b5060075490565b336000908152600160209081526040808320600160a060020a0386168452909152812054614eb8908361582f565b336000818152600160209081526040808320600160a060020a0389168085529083529281902085905580519485525191937f8c5be1e5ebec7d5bd14f71427d1e84f3dd0314c0f7b2291e5b200ac8c7c3b925929081900390910190a350600192915050565b600160a060020a03918216600090815260016020908152604080832093909416825291909152205490565b33600160a060020a03166000357bffffffffffffffffffffffffffffffffffffffffffffffffffffffff19167bffffffffffffffffffffffffffffffffffffffffffffffffffffffff191660003660405180806020018281038252848482818152602001925080828437600083820152604051601f909101601f19169092018290039550909350505050a2600654600160a060020a03163314615035576040805160e560020a62461bcd02815260206004820152601260248201527f4552525f4e4f545f434f4e54524f4c4c45520000000000000000000000000000604482015290519081900360640190fd5b600160a060020a0383166000908152600a602052604090205460ff16156150a6576040805160e560020a62461bcd02815260206004820152600c60248201527f4552525f49535f424f554e440000000000000000000000000000000000000000604482015290519081900360640190fd5b60085460ff1615615101576040805160e560020a62461bcd02815260206004820152601060248201527f4552525f49535f46494e414c495a454400000000000000000000000000000000604482015290519081900360640190fd5b60095460081161515b576040805160e560020a62461bcd02815260206004820152600e60248201527f4552525f4d41585f544f4b454e53000000000000000000000000000000000000604482015290519081900360640190fd5b604080516080810182526001808252600980546020808501918252600085870181815260608701828152600160a060020a038c16808452600a9094529782209651875460ff1916901515178755925186860155915160028601559451600390940193909355805491820181559091527f6e1540171b6c0c960b71a7020d9f60077f6af931a8bbf590da0223dacf75c7af01805473ffffffffffffffffffffffffffffffffffffffff1916909117905561521583838361198b565b505050565b6002670de0b6b3a764000061150a565b600554600090610100900460ff161561527b576040805160e560020a62461bcd02815260206004820152600b6024820152600080516020615e51833981519152604482015290519081900360640190fd5b600160a060020a0382166000908152600a602052604090205460ff166152eb576040805160e560020a62461bcd02815260206004820152600d60248201527f4552525f4e4f545f424f554e4400000000000000000000000000000000000000604482015290519081900360640190fd5b600160a060020a0382166000908152600a6020526040902060020154600b54615315908290615907565b9392505050565b600554600090610100900460ff161561536d576040805160e560020a62461bcd02815260206004820152600b6024820152600080516020615e51833981519152604482015290519081900360640190fd5b600160a060020a0382166000908152600a602052604090205460ff166153dd576040805160e560020a62461bcd02815260206004820152600d60248201527f4552525f4e4f545f424f554e4400000000000000000000000000000000000000604482015290519081900360640190fd5b50600160a060020a03166000908152600a602052604090206003015490565b6000806154098588615907565b905060006154178786615589565b905060006154258883615907565b905060006154338285615a43565b905061544781670de0b6b3a7640000615589565b905061545b670de0b6b3a764000087615589565b945061547061546a8c836154a0565b86615907565b9b9a5050505050505050505050565b60065474010000000000000000000000000000000000000000900460ff1690565b60008282028315806154ba5750828482816154b757fe5b04145b61550e576040805160e560020a62461bcd02815260206004820152601060248201527f4552525f4d554c5f4f564552464c4f5700000000000000000000000000000000604482015290519081900360640190fd5b6706f05b59d3b20000810181811015615571576040805160e560020a62461bcd02815260206004820152601060248201527f4552525f4d554c5f4f564552464c4f5700000000000000000000000000000000604482015290519081900360640190fd5b6000670de0b6b3a7640000825b049695505050505050565b60008060006155988585615b66565b9150915080156155f2576040805160e560020a62461bcd02815260206004820152601160248201527f4552525f5355425f554e444552464c4f57000000000000000000000000000000604482015290519081900360640190fd5b509392505050565b6156048282615b8b565b5050565b61561181615b96565b50565b6156048282615c72565b604080517fa9059cbb000000000000000000000000000000000000000000000000000000008152600160a060020a03848116600483015260248201849052915160009286169163a9059cbb91604480830192602092919082900301818787803b15801561568a57600080fd5b505af115801561569e573d6000803e3d6000fd5b505050506040513d60208110156156b457600080fd5b505190508061570d576040805160e560020a62461bcd02815260206004820152600f60248201527f4552525f45524332305f46414c53450000000000000000000000000000000000604482015290519081900360640190fd5b50505050565b600160a060020a038316600090815260208190526040902054811115615783576040805160e560020a62461bcd02815260206004820152601460248201527f4552525f494e53554646494349454e545f42414c000000000000000000000000604482015290519081900360640190fd5b600160a060020a0383166000908152602081905260409020546157a69082615589565b600160a060020a0380851660009081526020819052604080822093909355908416815220546157d5908261582f565b600160a060020a038084166000818152602081815260409182902094909455805185815290519193928716927fddf252ad1be2c89b69c2b068fc378daa952ba7f163c4a11628f55a4df523b3ef92918290030190a3505050565b600082820183811015615315576040805160e560020a62461bcd02815260206004820152601060248201527f4552525f4144445f4f564552464c4f5700000000000000000000000000000000604482015290519081900360640190fd5b604080517f23b872dd000000000000000000000000000000000000000000000000000000008152600160a060020a0384811660048301523060248301526044820184905291516000928616916323b872dd91606480830192602092919082900301818787803b15801561568a57600080fd5b61561181615c7d565b60008161595e576040805160e560020a62461bcd02815260206004820152600c60248201527f4552525f4449565f5a45524f0000000000000000000000000000000000000000604482015290519081900360640190fd5b670de0b6b3a764000083028315806159865750670de0b6b3a764000084828161598357fe5b04145b6159da576040805160e560020a62461bcd02815260206004820152601060248201527f4552525f4449565f494e5445524e414c00000000000000000000000000000000604482015290519081900360640190fd5b60028304810181811015615a38576040805160e560020a62461bcd02815260206004820152601060248201527f4552525f4449565f494e5445524e414c00000000000000000000000000000000604482015290519081900360640190fd5b600084828161557e57fe5b60006001831015615a9e576040805160e560020a62461bcd02815260206004820152601560248201527f4552525f42504f575f424153455f544f4f5f4c4f570000000000000000000000604482015290519081900360640190fd5b671bc16d674ec7ffff831115615afe576040805160e560020a62461bcd02815260206004820152601660248201527f4552525f42504f575f424153455f544f4f5f4849474800000000000000000000604482015290519081900360640190fd5b6000615b0983615cf2565b90506000615b178483615589565b90506000615b2d86615b2885615d0d565b615d1b565b905081615b3e5792506111ee915050565b6000615b4f87846305f5e100615d72565b9050615b5b82826154a0565b979650505050505050565b600080828410615b7c5750508082036000615b84565b505081810360015b9250929050565b615604823083615713565b30600090815260208190526040902054811115615bfd576040805160e560020a62461bcd02815260206004820152601460248201527f4552525f494e53554646494349454e545f42414c000000000000000000000000604482015290519081900360640190fd5b30600090815260208190526040902054615c179082615589565b30600090815260208190526040902055600254615c349082615589565b60025560408051828152905160009130917fddf252ad1be2c89b69c2b068fc378daa952ba7f163c4a11628f55a4df523b3ef9181900360200190a350565b615604308383615713565b30600090815260208190526040902054615c97908261582f565b30600090815260208190526040902055600254615cb4908261582f565b60025560408051828152905130916000917fddf252ad1be2c89b69c2b068fc378daa952ba7f163c4a11628f55a4df523b3ef9181900360200190a350565b6000670de0b6b3a7640000615d0683615d0d565b0292915050565b670de0b6b3a7640000900490565b60008060028306615d3457670de0b6b3a7640000615d36565b835b90506002830492505b821561531557615d4f84856154a0565b93506002830615615d6757615d6481856154a0565b90505b600283049250615d3f565b6000828180615d8987670de0b6b3a7640000615b66565b9092509050670de0b6b3a764000080600060015b888410615e41576000670de0b6b3a764000082029050600080615dd18a615dcc85670de0b6b3a7640000615589565b615b66565b91509150615de387613dd5848c6154a0565b9650615def8784615907565b965086615dfe57505050615e41565b8715615e08579315935b8015615e12579315935b8415615e2957615e228688615589565b9550615e36565b615e33868861582f565b95505b505050600101615d9d565b5090999850505050505050505056fe4552525f5245454e545259000000000000000000000000000000000000000000a265627a7a723158206e50956b9dd44c5aadd3f81456ff93cf6a9060cad6434d366e10d86f026012fe64736f6c634300050c0032",
  "source": "// This program is free software: you can redistribute it and/or modify\n// it under the terms of the GNU General Public License as published by\n// the Free Software Foundation, either version 3 of the License, or\n// (at your option) any later version.\n\n// This program is distributed in the hope that it will be useful,\n// but WITHOUT ANY WARRANTY; without even the implied warranty of\n// MERCHANTABILITY or FITNESS FOR A PARTICULAR PURPOSE.  See the\n// GNU General Public License for more details.\n\n// You should have received a copy of the GNU General Public License\n// along with this program.  If not, see <http://www.gnu.org/licenses/>.\n\npragma solidity >=0.4.21 <0.6.0;\n\nimport \"./BToken.sol\";\nimport \"./BMath.sol\";\n\ncontract BPool is BBronze, BToken, BMath {\n\n    struct Record {\n        bool bound;   // is token bound to pool\n        uint index;   // private\n        uint denorm;  // denormalized weight\n        uint balance;\n    }\n\n    event LOG_SWAP(\n        address indexed caller,\n        address indexed tokenIn,\n        address indexed tokenOut,\n        uint256         tokenAmountIn,\n        uint256         tokenAmountOut\n    );\n\n    event LOG_JOIN(\n        address indexed caller,\n        address indexed tokenIn,\n        uint256         tokenAmountIn\n    );\n\n    event LOG_EXIT(\n        address indexed caller,\n        address indexed tokenOut,\n        uint256         tokenAmountOut\n    );\n\n    event LOG_CALL(\n        bytes4  indexed sig,\n        address indexed caller,\n        bytes           data\n    ) anonymous;\n\n    modifier _logs_() {\n        emit LOG_CALL(msg.sig, msg.sender, msg.data);\n        _;\n    }\n\n    modifier _lock_() {\n        require(!_mutex, \"ERR_REENTRY\");\n        _mutex = true;\n        _;\n        _mutex = false;\n    }\n\n    modifier _viewlock_() {\n        require(!_mutex, \"ERR_REENTRY\");\n        _;\n    }\n\n    bool private _mutex;\n\n    address private _factory;    // BFactory address to push token exitFee to\n    address private _controller; // has CONTROL role\n    bool private _publicSwap; // true if PUBLIC can call SWAP functions\n\n    // `setSwapFee` and `finalize` require CONTROL\n    // `finalize` sets `PUBLIC can SWAP`, `PUBLIC can JOIN`\n    uint private _swapFee;\n    bool private _finalized;\n\n    address[] private _tokens;\n    mapping(address=>Record) private  _records;\n    uint private _totalWeight;\n\n    constructor() public {\n        _controller = address(0x600D26686551aCfb76Cb492A9520bac597fCf2D9);\n        _factory = msg.sender;\n        _swapFee = MIN_FEE;\n        _publicSwap = false;\n        _finalized = false;\n    }\n\n    function isPublicSwap()\n        external view\n        returns (bool)\n    {\n        return _publicSwap;\n    }\n\n    function isFinalized()\n        external view\n        returns (bool)\n    {\n        return _finalized;\n    }\n\n    function isBound(address t)\n        external view\n        returns (bool)\n    {\n        return _records[t].bound;\n    }\n\n    function getNumTokens()\n        external view\n        returns (uint) \n    {\n        return _tokens.length;\n    }\n\n    function getCurrentTokens()\n        external view _viewlock_\n        returns (address[] memory tokens)\n    {\n        return _tokens;\n    }\n\n    function getFinalTokens()\n        external view\n        _viewlock_\n        returns (address[] memory tokens)\n    {\n        require(_finalized, \"ERR_NOT_FINALIZED\");\n        return _tokens;\n    }\n\n    function getDenormalizedWeight(address token)\n        external view\n        _viewlock_\n        returns (uint)\n    {\n\n        require(_records[token].bound, \"ERR_NOT_BOUND\");\n        return _records[token].denorm;\n    }\n\n    function getTotalDenormalizedWeight()\n        external view\n        _viewlock_\n        returns (uint)\n    {\n        return _totalWeight;\n    }\n\n    function getNormalizedWeight(address token)\n        external view\n        _viewlock_\n        returns (uint)\n    {\n\n        require(_records[token].bound, \"ERR_NOT_BOUND\");\n        uint denorm = _records[token].denorm;\n        return bdiv(denorm, _totalWeight);\n    }\n\n    function getBalance(address token)\n        external view\n        _viewlock_\n        returns (uint)\n    {\n\n        require(_records[token].bound, \"ERR_NOT_BOUND\");\n        return _records[token].balance;\n    }\n\n    function getSwapFee()\n        external view\n        _viewlock_\n        returns (uint)\n    {\n        return _swapFee;\n    }\n\n    function getController()\n        external view\n        _viewlock_\n        returns (address)\n    {\n        return _controller;\n    }\n\n    function setSwapFee(uint swapFee)\n        external\n        _logs_\n        _lock_\n    { \n        require(!_finalized, \"ERR_IS_FINALIZED\");\n        require(msg.sender == _controller, \"ERR_NOT_CONTROLLER\");\n        require(swapFee >= MIN_FEE, \"ERR_MIN_FEE\");\n        require(swapFee <= MAX_FEE, \"ERR_MAX_FEE\");\n        _swapFee = swapFee;\n    }\n\n    function setController()\n        external\n        _logs_\n        _lock_\n    {\n        _controller = address(0x600D26686551aCfb76Cb492A9520bac597fCf2D9);\n    }\n\n    function setPublicSwap(bool public_)\n        external\n        _logs_\n        _lock_\n    {\n        require(!_finalized, \"ERR_IS_FINALIZED\");\n        require(msg.sender == _controller, \"ERR_NOT_CONTROLLER\");\n        _publicSwap = public_;\n    }\n\n    function finalize()\n        external\n        _logs_\n        _lock_\n    {\n        require(msg.sender == _controller, \"ERR_NOT_CONTROLLER\");\n        require(!_finalized, \"ERR_IS_FINALIZED\");\n        require(_tokens.length >= MIN_BOUND_TOKENS, \"ERR_MIN_TOKENS\");\n\n        _finalized = true;\n        _publicSwap = true;\n\n        _mintPoolShare(INIT_POOL_SUPPLY);\n        _pushPoolShare(msg.sender, INIT_POOL_SUPPLY);\n    }\n\n\n    function bind(address token, uint balance, uint denorm)\n        external\n        _logs_\n        // _lock_  Bind does not lock because it jumps to `rebind`, which does\n    {\n        require(msg.sender == _controller, \"ERR_NOT_CONTROLLER\");\n        require(!_records[token].bound, \"ERR_IS_BOUND\");\n        require(!_finalized, \"ERR_IS_FINALIZED\");\n\n        require(_tokens.length < MAX_BOUND_TOKENS, \"ERR_MAX_TOKENS\");\n\n        _records[token] = Record({\n            bound: true,\n            index: _tokens.length,\n            denorm: 0,    // balance and denorm will be validated\n            balance: 0   // and set by `rebind`\n        });\n        _tokens.push(token);\n        rebind(token, balance, denorm);\n    }\n\n    function rebind(address token, uint balance, uint denorm)\n        public\n        _logs_\n        _lock_\n    {\n\n        require(msg.sender == _controller, \"ERR_NOT_CONTROLLER\");\n        require(_records[token].bound, \"ERR_NOT_BOUND\");\n        require(!_finalized, \"ERR_IS_FINALIZED\");\n\n        //require(denorm >= MIN_WEIGHT, \"ERR_MIN_WEIGHT\");\n        require(denorm <= MAX_WEIGHT, \"ERR_MAX_WEIGHT\");\n        require(balance >= MIN_BALANCE, \"ERR_MIN_BALANCE\");\n\n        // Adjust the denorm and totalWeight\n        uint oldWeight = _records[token].denorm;\n        if (denorm > oldWeight) {\n            _totalWeight = badd(_totalWeight, bsub(denorm, oldWeight));\n            require(_totalWeight <= MAX_TOTAL_WEIGHT, \"ERR_MAX_TOTAL_WEIGHT\");\n        } else if (denorm < oldWeight) {\n            _totalWeight = bsub(_totalWeight, bsub(oldWeight, denorm));\n        }        \n        _records[token].denorm = denorm;\n\n        // Adjust the balance record and actual token balance\n        uint oldBalance = _records[token].balance;\n        _records[token].balance = balance;\n        if (balance > oldBalance) {\n            _pullUnderlying(token, msg.sender, bsub(balance, oldBalance));\n        } else if (balance < oldBalance) {\n            // In this case liquidity is being withdrawn, so charge EXIT_FEE\n            uint tokenBalanceWithdrawn = bsub(oldBalance, balance);\n            uint tokenExitFee = bmul(tokenBalanceWithdrawn, EXIT_FEE);\n            _pushUnderlying(token, msg.sender, bsub(tokenBalanceWithdrawn, tokenExitFee));\n            _pushUnderlying(token, _factory, tokenExitFee);\n        }\n    }\n\n    function unbind(address token)\n        external\n        _logs_\n        _lock_\n    {\n\n        require(msg.sender == _controller, \"ERR_NOT_CONTROLLER\");\n        require(_records[token].bound, \"ERR_NOT_BOUND\");\n        require(!_finalized, \"ERR_IS_FINALIZED\");\n\n        uint tokenBalance = _records[token].balance;\n        uint tokenExitFee = bmul(tokenBalance, EXIT_FEE);\n\n        _totalWeight = bsub(_totalWeight, _records[token].denorm);\n\n        // Swap the token-to-unbind with the last token,\n        // then delete the last token\n        uint index = _records[token].index;\n        uint last = _tokens.length - 1;\n        _tokens[index] = _tokens[last];\n        _records[_tokens[index]].index = index;\n        _tokens.pop();\n        _records[token] = Record({\n            bound: false,\n            index: 0,\n            denorm: 0,\n            balance: 0\n        });\n\n        _pushUnderlying(token, msg.sender, bsub(tokenBalance, tokenExitFee));\n        _pushUnderlying(token, _factory, tokenExitFee);\n    }\n\n    // Absorb any tokens that have been sent to this contract into the pool\n    function gulp(address token)\n        external\n        _logs_\n        _lock_\n    {\n        require(_records[token].bound, \"ERR_NOT_BOUND\");\n        _records[token].balance = IERC20(token).balanceOf(address(this));\n    }\n\n    function getSpotPrice(address tokenIn, address tokenOut)\n        external view\n        _viewlock_\n        returns (uint spotPrice)\n    {\n        require(_records[tokenIn].bound, \"ERR_NOT_BOUND\");\n        require(_records[tokenOut].bound, \"ERR_NOT_BOUND\");\n        Record storage inRecord = _records[tokenIn];\n        Record storage outRecord = _records[tokenOut];\n        return calcSpotPrice(inRecord.balance, inRecord.denorm, outRecord.balance, outRecord.denorm, _swapFee);\n    }\n\n    function getSpotPriceSansFee(address tokenIn, address tokenOut)\n        external view\n        _viewlock_\n        returns (uint spotPrice)\n    {\n        require(_records[tokenIn].bound, \"ERR_NOT_BOUND\");\n        require(_records[tokenOut].bound, \"ERR_NOT_BOUND\");\n        Record storage inRecord = _records[tokenIn];\n        Record storage outRecord = _records[tokenOut];\n        return calcSpotPrice(inRecord.balance, inRecord.denorm, outRecord.balance, outRecord.denorm, 0);\n    }\n\n    function joinPool(uint poolAmountOut, uint[] calldata maxAmountsIn)\n        external\n        _logs_\n        _lock_\n    {\n        require(_finalized, \"ERR_NOT_FINALIZED\");\n\n        uint poolTotal = totalSupply();\n        uint ratio = bdiv(poolAmountOut, poolTotal);\n        require(ratio != 0, \"ERR_MATH_APPROX\");\n\n        for (uint i = 0; i < _tokens.length; i++) {\n            address t = _tokens[i];\n            uint bal = _records[t].balance;\n            uint tokenAmountIn = bmul(ratio, bal);\n            require(tokenAmountIn != 0, \"ERR_MATH_APPROX\");\n            require(tokenAmountIn <= maxAmountsIn[i], \"ERR_LIMIT_IN\");\n            _records[t].balance = badd(_records[t].balance, tokenAmountIn);\n            emit LOG_JOIN(msg.sender, t, tokenAmountIn);\n            _pullUnderlying(t, msg.sender, tokenAmountIn);\n        }\n        _mintPoolShare(poolAmountOut);\n        _pushPoolShare(msg.sender, poolAmountOut);\n    }\n\n    function exitPool(uint poolAmountIn, uint[] calldata minAmountsOut)\n        external\n        _logs_\n        _lock_\n    {\n        require(_finalized, \"ERR_NOT_FINALIZED\");\n\n        uint poolTotal = totalSupply();\n        uint exitFee = bmul(poolAmountIn, EXIT_FEE);\n        uint pAiAfterExitFee = bsub(poolAmountIn, exitFee);\n        uint ratio = bdiv(pAiAfterExitFee, poolTotal);\n        require(ratio != 0, \"ERR_MATH_APPROX\");\n\n        _pullPoolShare(msg.sender, poolAmountIn);\n        _pushPoolShare(_factory, exitFee);\n        _burnPoolShare(pAiAfterExitFee);\n\n        for (uint i = 0; i < _tokens.length; i++) {\n            address t = _tokens[i];\n            uint bal = _records[t].balance;\n            uint tokenAmountOut = bmul(ratio, bal);\n            require(tokenAmountOut != 0, \"ERR_MATH_APPROX\");\n            require(tokenAmountOut >= minAmountsOut[i], \"ERR_LIMIT_OUT\");\n            _records[t].balance = bsub(_records[t].balance, tokenAmountOut);\n            emit LOG_EXIT(msg.sender, t, tokenAmountOut);\n            _pushUnderlying(t, msg.sender, tokenAmountOut);\n        }\n\n    }\n\n\n    function swapExactAmountIn(\n        address tokenIn,\n        uint tokenAmountIn,\n        address tokenOut,\n        uint minAmountOut,\n        uint maxPrice\n    )\n        external\n        _logs_\n        _lock_\n        returns (uint tokenAmountOut, uint spotPriceAfter)\n    {\n\n        require(_records[tokenIn].bound, \"ERR_NOT_BOUND\");\n        require(_records[tokenOut].bound, \"ERR_NOT_BOUND\");\n        require(_publicSwap, \"ERR_SWAP_NOT_PUBLIC\");\n\n        Record storage inRecord = _records[address(tokenIn)];\n        Record storage outRecord = _records[address(tokenOut)];\n\n        require(tokenAmountIn <= bmul(inRecord.balance, MAX_IN_RATIO), \"ERR_MAX_IN_RATIO\");\n\n        uint spotPriceBefore = calcSpotPrice(\n                                    inRecord.balance,\n                                    inRecord.denorm,\n                                    outRecord.balance,\n                                    outRecord.denorm,\n                                    _swapFee\n                                );\n        require(spotPriceBefore <= maxPrice, \"ERR_BAD_LIMIT_PRICE\");\n\n        tokenAmountOut = calcOutGivenIn(\n                            inRecord.balance,\n                            inRecord.denorm,\n                            outRecord.balance,\n                            outRecord.denorm,\n                            tokenAmountIn,\n                            _swapFee\n                        );\n        require(tokenAmountOut >= minAmountOut, \"ERR_LIMIT_OUT\");\n\n        inRecord.balance = badd(inRecord.balance, tokenAmountIn);\n        outRecord.balance = bsub(outRecord.balance, tokenAmountOut);\n\n        spotPriceAfter = calcSpotPrice(\n                                inRecord.balance,\n                                inRecord.denorm,\n                                outRecord.balance,\n                                outRecord.denorm,\n                                _swapFee\n                            );\n        require(spotPriceAfter >= spotPriceBefore, \"ERR_MATH_APPROX\");     \n        require(spotPriceAfter <= maxPrice, \"ERR_LIMIT_PRICE\");\n        require(spotPriceBefore <= bdiv(tokenAmountIn, tokenAmountOut), \"ERR_MATH_APPROX\");\n\n        emit LOG_SWAP(msg.sender, tokenIn, tokenOut, tokenAmountIn, tokenAmountOut);\n\n        _pullUnderlying(tokenIn, msg.sender, tokenAmountIn);\n        _pushUnderlying(tokenOut, msg.sender, tokenAmountOut);\n\n        return (tokenAmountOut, spotPriceAfter);\n    }\n\n    function swapExactAmountOut(\n        address tokenIn,\n        uint maxAmountIn,\n        address tokenOut,\n        uint tokenAmountOut,\n        uint maxPrice\n    )\n        external\n        _logs_\n        _lock_ \n        returns (uint tokenAmountIn, uint spotPriceAfter)\n    {\n        require(_records[tokenIn].bound, \"ERR_NOT_BOUND\");\n        require(_records[tokenOut].bound, \"ERR_NOT_BOUND\");\n        require(_publicSwap, \"ERR_SWAP_NOT_PUBLIC\");\n\n        Record storage inRecord = _records[address(tokenIn)];\n        Record storage outRecord = _records[address(tokenOut)];\n\n        require(tokenAmountOut <= bmul(outRecord.balance, MAX_OUT_RATIO), \"ERR_MAX_OUT_RATIO\");\n\n        uint spotPriceBefore = calcSpotPrice(\n                                    inRecord.balance,\n                                    inRecord.denorm,\n                                    outRecord.balance,\n                                    outRecord.denorm,\n                                    _swapFee\n                                );\n        require(spotPriceBefore <= maxPrice, \"ERR_BAD_LIMIT_PRICE\");\n\n        tokenAmountIn = calcInGivenOut(\n                            inRecord.balance,\n                            inRecord.denorm,\n                            outRecord.balance,\n                            outRecord.denorm,\n                            tokenAmountOut,\n                            _swapFee\n                        );\n        require(tokenAmountIn <= maxAmountIn, \"ERR_LIMIT_IN\");\n\n        inRecord.balance = badd(inRecord.balance, tokenAmountIn);\n        outRecord.balance = bsub(outRecord.balance, tokenAmountOut);\n\n        spotPriceAfter = calcSpotPrice(\n                                inRecord.balance,\n                                inRecord.denorm,\n                                outRecord.balance,\n                                outRecord.denorm,\n                                _swapFee\n                            );\n        require(spotPriceAfter >= spotPriceBefore, \"ERR_MATH_APPROX\");\n        require(spotPriceAfter <= maxPrice, \"ERR_LIMIT_PRICE\");\n        require(spotPriceBefore <= bdiv(tokenAmountIn, tokenAmountOut), \"ERR_MATH_APPROX\");\n\n        emit LOG_SWAP(msg.sender, tokenIn, tokenOut, tokenAmountIn, tokenAmountOut);\n\n        _pullUnderlying(tokenIn, msg.sender, tokenAmountIn);\n        _pushUnderlying(tokenOut, msg.sender, tokenAmountOut);\n\n        return (tokenAmountIn, spotPriceAfter);\n    }\n\n\n    function joinswapExternAmountIn(address tokenIn, uint tokenAmountIn, uint minPoolAmountOut)\n        external\n        _logs_\n        _lock_\n        returns (uint poolAmountOut)\n\n    {        \n        require(_finalized, \"ERR_NOT_FINALIZED\");\n        require(_records[tokenIn].bound, \"ERR_NOT_BOUND\");\n        require(tokenAmountIn <= bmul(_records[tokenIn].balance, MAX_IN_RATIO), \"ERR_MAX_IN_RATIO\");\n\n        Record storage inRecord = _records[tokenIn];\n\n        poolAmountOut = calcPoolOutGivenSingleIn(\n                            inRecord.balance,\n                            inRecord.denorm,\n                            _totalSupply,\n                            _totalWeight,\n                            tokenAmountIn,\n                            _swapFee\n                        );\n\n        require(poolAmountOut >= minPoolAmountOut, \"ERR_LIMIT_OUT\");\n\n        inRecord.balance = badd(inRecord.balance, tokenAmountIn);\n\n        emit LOG_JOIN(msg.sender, tokenIn, tokenAmountIn);\n\n        _mintPoolShare(poolAmountOut);\n        _pushPoolShare(msg.sender, poolAmountOut);\n        _pullUnderlying(tokenIn, msg.sender, tokenAmountIn);\n\n        return poolAmountOut;\n    }\n\n    function joinswapPoolAmountOut(address tokenIn, uint poolAmountOut, uint maxAmountIn)\n        external\n        _logs_\n        _lock_\n        returns (uint tokenAmountIn)\n    {\n        require(_finalized, \"ERR_NOT_FINALIZED\");\n        require(_records[tokenIn].bound, \"ERR_NOT_BOUND\");\n\n        Record storage inRecord = _records[tokenIn];\n\n        tokenAmountIn = calcSingleInGivenPoolOut(\n                            inRecord.balance,\n                            inRecord.denorm,\n                            _totalSupply,\n                            _totalWeight,\n                            poolAmountOut,\n                            _swapFee\n                        );\n\n        require(tokenAmountIn != 0, \"ERR_MATH_APPROX\");\n        require(tokenAmountIn <= maxAmountIn, \"ERR_LIMIT_IN\");\n        \n        require(tokenAmountIn <= bmul(_records[tokenIn].balance, MAX_IN_RATIO), \"ERR_MAX_IN_RATIO\");\n\n        inRecord.balance = badd(inRecord.balance, tokenAmountIn);\n\n        emit LOG_JOIN(msg.sender, tokenIn, tokenAmountIn);\n\n        _mintPoolShare(poolAmountOut);\n        _pushPoolShare(msg.sender, poolAmountOut);\n        _pullUnderlying(tokenIn, msg.sender, tokenAmountIn);\n\n        return tokenAmountIn;\n    }\n\n    function exitswapPoolAmountIn(address tokenOut, uint poolAmountIn, uint minAmountOut)\n        external\n        _logs_\n        _lock_\n        returns (uint tokenAmountOut)\n    {\n        require(_finalized, \"ERR_NOT_FINALIZED\");\n        require(_records[tokenOut].bound, \"ERR_NOT_BOUND\");\n\n        Record storage outRecord = _records[tokenOut];\n\n        tokenAmountOut = calcSingleOutGivenPoolIn(\n                            outRecord.balance,\n                            outRecord.denorm,\n                            _totalSupply,\n                            _totalWeight,\n                            poolAmountIn,\n                            _swapFee\n                        );\n\n        require(tokenAmountOut >= minAmountOut, \"ERR_LIMIT_OUT\");\n        \n        require(tokenAmountOut <= bmul(_records[tokenOut].balance, MAX_OUT_RATIO), \"ERR_MAX_OUT_RATIO\");\n\n        outRecord.balance = bsub(outRecord.balance, tokenAmountOut);\n\n        uint exitFee = bmul(poolAmountIn, EXIT_FEE);\n\n        emit LOG_EXIT(msg.sender, tokenOut, tokenAmountOut);\n\n        _pullPoolShare(msg.sender, poolAmountIn);\n        _burnPoolShare(bsub(poolAmountIn, exitFee));\n        _pushPoolShare(_factory, exitFee);\n        _pushUnderlying(tokenOut, msg.sender, tokenAmountOut);\n\n        return tokenAmountOut;\n    }\n\n    function exitswapExternAmountOut(address tokenOut, uint tokenAmountOut, uint maxPoolAmountIn)\n        external\n        _logs_\n        _lock_\n        returns (uint poolAmountIn)\n    {\n        require(_finalized, \"ERR_NOT_FINALIZED\");\n        require(_records[tokenOut].bound, \"ERR_NOT_BOUND\");\n        require(tokenAmountOut <= bmul(_records[tokenOut].balance, MAX_OUT_RATIO), \"ERR_MAX_OUT_RATIO\");\n\n        Record storage outRecord = _records[tokenOut];\n\n        poolAmountIn = calcPoolInGivenSingleOut(\n                            outRecord.balance,\n                            outRecord.denorm,\n                            _totalSupply,\n                            _totalWeight,\n                            tokenAmountOut,\n                            _swapFee\n                        );\n\n        require(poolAmountIn != 0, \"ERR_MATH_APPROX\");\n        require(poolAmountIn <= maxPoolAmountIn, \"ERR_LIMIT_IN\");\n\n        outRecord.balance = bsub(outRecord.balance, tokenAmountOut);\n\n        uint exitFee = bmul(poolAmountIn, EXIT_FEE);\n\n        emit LOG_EXIT(msg.sender, tokenOut, tokenAmountOut);\n\n        _pullPoolShare(msg.sender, poolAmountIn);\n        _burnPoolShare(bsub(poolAmountIn, exitFee));\n        _pushPoolShare(_factory, exitFee);\n        _pushUnderlying(tokenOut, msg.sender, tokenAmountOut);        \n\n        return poolAmountIn;\n    }\n\n\n    // ==\n    // 'Underlying' token-manipulation functions make external calls but are NOT locked\n    // You must `_lock_` or otherwise ensure reentry-safety\n\n    function _pullUnderlying(address erc20, address from, uint amount)\n        internal\n    {\n        bool xfer = IERC20(erc20).transferFrom(from, address(this), amount);\n        require(xfer, \"ERR_ERC20_FALSE\");\n    }\n\n    function _pushUnderlying(address erc20, address to, uint amount)\n        internal\n    {\n        bool xfer = IERC20(erc20).transfer(to, amount);\n        require(xfer, \"ERR_ERC20_FALSE\");\n    }\n\n    function _pullPoolShare(address from, uint amount)\n        internal\n    {\n        _pull(from, amount);\n    }\n\n    function _pushPoolShare(address to, uint amount)\n        internal\n    {\n        _push(to, amount);\n    }\n\n    function _mintPoolShare(uint amount)\n        internal\n    {\n        _mint(amount);\n    }\n\n    function _burnPoolShare(uint amount)\n        internal\n    {\n        _burn(amount);\n    }\n\n}\n",
  "sourcePath": "/Users/janetliang/go/src/github.com/harmony-one/balancer-core/contracts/BPool.sol",
  "compiler": {
    "name": "solc",
    "version": "0.5.12+commit.7709ece9.Emscripten.clang"
  },
  "schemaVersion": "3.2.3",
  "updatedAt": "2020-08-08T00:00:34.105Z",
  "devdoc": {
    "methods": {}
  },
  "userdoc": {
    "methods": {
      "calcInGivenOut(uint256,uint256,uint256,uint256,uint256,uint256)": {
        "notice": "******************************************************************************************** // calcInGivenOut                                                                            // // aI = tokenAmountIn                                                                        // // bO = tokenBalanceOut               /  /     bO      \\    (wO / wI)      \\                 // // bI = tokenBalanceIn          bI * |  | ------------  | ^            - 1  |                // // aO = tokenAmountOut    aI =        \\  \\ ( bO - aO ) /                   /                 // // wI = tokenWeightIn           --------------------------------------------                 // // wO = tokenWeightOut                          ( 1 - sF )                                   // // sF = swapFee                                                                              //*********************************************************************************************"
      },
      "calcOutGivenIn(uint256,uint256,uint256,uint256,uint256,uint256)": {
        "notice": "******************************************************************************************** // calcOutGivenIn                                                                            // // aO = tokenAmountOut                                                                       // // bO = tokenBalanceOut                                                                      // // bI = tokenBalanceIn              /      /            bI             \\    (wI / wO) \\      // // aI = tokenAmountIn    aO = bO * |  1 - | --------------------------  | ^            |     // // wI = tokenWeightIn               \\      \\ ( bI + ( aI * ( 1 - sF )) /              /      // // wO = tokenWeightOut                                                                       // // sF = swapFee                                                                              //*********************************************************************************************"
      },
      "calcPoolInGivenSingleOut(uint256,uint256,uint256,uint256,uint256,uint256)": {
        "notice": "******************************************************************************************** // calcPoolInGivenSingleOut                                                                  // // pAi = poolAmountIn               // /               tAo             \\\\     / wO \\     \\   // // bO = tokenBalanceOut            // | bO - -------------------------- |\\   | ---- |     \\  // // tAo = tokenAmountOut      pS - ||   \\     1 - ((1 - (tO / tW)) * sF)/  | ^ \\ tW /  * pS | // // ps = poolSupply                 \\\\ -----------------------------------/                /  // // wO = tokenWeightOut  pAi =       \\\\               bO                 /                /   // // tW = totalWeight           -------------------------------------------------------------  // // sF = swapFee                                        ( 1 - eF )                            // // eF = exitFee                                                                              //*********************************************************************************************"
      },
      "calcPoolOutGivenSingleIn(uint256,uint256,uint256,uint256,uint256,uint256)": {
        "notice": "******************************************************************************************** // calcPoolOutGivenSingleIn                                                                  // // pAo = poolAmountOut         /                                              \\              // // tAi = tokenAmountIn        ///      /     //    wI \\      \\\\       \\     wI \\             // // wI = tokenWeightIn        //| tAi *| 1 - || 1 - --  | * sF || + tBi \\    --  \\            // // tW = totalWeight     pAo=||  \\      \\     \\\\    tW /      //         | ^ tW   | * pS - pS // // tBi = tokenBalanceIn      \\\\  ------------------------------------- /        /            // // pS = poolSupply            \\\\                    tBi               /        /             // // sF = swapFee                \\                                              /              //*********************************************************************************************"
      },
      "calcSingleInGivenPoolOut(uint256,uint256,uint256,uint256,uint256,uint256)": {
        "notice": "******************************************************************************************** // calcSingleInGivenPoolOut                                                                  // // tAi = tokenAmountIn              //(pS + pAo)\\     /    1    \\\\                           // // pS = poolSupply                 || ---------  | ^ | --------- || * bI - bI                // // pAo = poolAmountOut              \\\\    pS    /     \\(wI / tW)//                           // // bI = balanceIn          tAi =  --------------------------------------------               // // wI = weightIn                              /      wI  \\                                   // // tW = totalWeight                          |  1 - ----  |  * sF                            // // sF = swapFee                               \\      tW  /                                   //*********************************************************************************************"
      },
      "calcSingleOutGivenPoolIn(uint256,uint256,uint256,uint256,uint256,uint256)": {
        "notice": "******************************************************************************************** // calcSingleOutGivenPoolIn                                                                  // // tAo = tokenAmountOut            /      /                                             \\\\   // // bO = tokenBalanceOut           /      // pS - (pAi * (1 - eF)) \\     /    1    \\      \\\\  // // pAi = poolAmountIn            | bO - || ----------------------- | ^ | --------- | * b0 || // // ps = poolSupply                \\      \\\\          pS           /     \\(wO / tW)/      //  // // wI = tokenWeightIn      tAo =   \\      \\                                             //   // // tW = totalWeight                    /     /      wO \\       \\                             // // sF = swapFee                    *  | 1 - |  1 - ---- | * sF  |                            // // eF = exitFee                        \\     \\      tW /       /                             //*********************************************************************************************"
      },
      "calcSpotPrice(uint256,uint256,uint256,uint256,uint256)": {
        "notice": "******************************************************************************************** // calcSpotPrice                                                                             // // sP = spotPrice                                                                            // // bI = tokenBalanceIn                ( bI / wI )         1                                  // // bO = tokenBalanceOut         sP =  -----------  *  ----------                             // // wI = tokenWeightIn                 ( bO / wO )     ( 1 - sF )                             // // wO = tokenWeightOut                                                                       // // sF = swapFee                                                                              //*********************************************************************************************"
      }
    }
  }
}